{
  "contractName": "WFIO",
  "abi": [
    {
      "inputs": [
        {
          "internalType": "uint256",
          "name": "_initialSupply",
          "type": "uint256"
        },
        {
          "internalType": "address[]",
          "name": "newcustodians",
          "type": "address[]"
        }
      ],
      "stateMutability": "nonpayable",
      "type": "constructor"
    },
    {
      "anonymous": false,
      "inputs": [
        {
          "indexed": true,
          "internalType": "address",
          "name": "owner",
          "type": "address"
        },
        {
          "indexed": true,
          "internalType": "address",
          "name": "spender",
          "type": "address"
        },
        {
          "indexed": false,
          "internalType": "uint256",
          "name": "value",
          "type": "uint256"
        }
      ],
      "name": "Approval",
      "type": "event"
    },
    {
      "anonymous": false,
      "inputs": [
        {
          "indexed": false,
          "internalType": "address",
          "name": "account",
          "type": "address"
        }
      ],
      "name": "Paused",
      "type": "event"
    },
    {
      "anonymous": false,
      "inputs": [
        {
          "indexed": true,
          "internalType": "bytes32",
          "name": "role",
          "type": "bytes32"
        },
        {
          "indexed": true,
          "internalType": "bytes32",
          "name": "previousAdminRole",
          "type": "bytes32"
        },
        {
          "indexed": true,
          "internalType": "bytes32",
          "name": "newAdminRole",
          "type": "bytes32"
        }
      ],
      "name": "RoleAdminChanged",
      "type": "event"
    },
    {
      "anonymous": false,
      "inputs": [
        {
          "indexed": true,
          "internalType": "bytes32",
          "name": "role",
          "type": "bytes32"
        },
        {
          "indexed": true,
          "internalType": "address",
          "name": "account",
          "type": "address"
        },
        {
          "indexed": true,
          "internalType": "address",
          "name": "sender",
          "type": "address"
        }
      ],
      "name": "RoleGranted",
      "type": "event"
    },
    {
      "anonymous": false,
      "inputs": [
        {
          "indexed": true,
          "internalType": "bytes32",
          "name": "role",
          "type": "bytes32"
        },
        {
          "indexed": true,
          "internalType": "address",
          "name": "account",
          "type": "address"
        },
        {
          "indexed": true,
          "internalType": "address",
          "name": "sender",
          "type": "address"
        }
      ],
      "name": "RoleRevoked",
      "type": "event"
    },
    {
      "anonymous": false,
      "inputs": [
        {
          "indexed": true,
          "internalType": "address",
          "name": "from",
          "type": "address"
        },
        {
          "indexed": true,
          "internalType": "address",
          "name": "to",
          "type": "address"
        },
        {
          "indexed": false,
          "internalType": "uint256",
          "name": "value",
          "type": "uint256"
        }
      ],
      "name": "Transfer",
      "type": "event"
    },
    {
      "anonymous": false,
      "inputs": [
        {
          "indexed": false,
          "internalType": "address",
          "name": "account",
          "type": "address"
        }
      ],
      "name": "Unpaused",
      "type": "event"
    },
    {
      "anonymous": false,
      "inputs": [
        {
          "indexed": false,
          "internalType": "string",
          "name": "signer",
          "type": "string"
        },
        {
          "indexed": false,
          "internalType": "address",
          "name": "account",
          "type": "address"
        },
        {
          "indexed": false,
          "internalType": "string",
          "name": "obtid",
          "type": "string"
        },
        {
          "indexed": false,
          "internalType": "bytes32",
          "name": "indexhash",
          "type": "bytes32"
        }
      ],
      "name": "consensus_activity",
      "type": "event"
    },
    {
      "anonymous": false,
      "inputs": [
        {
          "indexed": false,
          "internalType": "address",
          "name": "account",
          "type": "address"
        },
        {
          "indexed": false,
          "internalType": "bytes32",
          "name": "indexhash",
          "type": "bytes32"
        }
      ],
      "name": "custodian_registered",
      "type": "event"
    },
    {
      "anonymous": false,
      "inputs": [
        {
          "indexed": false,
          "internalType": "address",
          "name": "account",
          "type": "address"
        },
        {
          "indexed": false,
          "internalType": "bytes32",
          "name": "indexhash",
          "type": "bytes32"
        }
      ],
      "name": "custodian_unregistered",
      "type": "event"
    },
    {
      "anonymous": false,
      "inputs": [
        {
          "indexed": false,
          "internalType": "address",
          "name": "account",
          "type": "address"
        },
        {
          "indexed": false,
          "internalType": "bytes32",
          "name": "indexhash",
          "type": "bytes32"
        }
      ],
      "name": "oracle_registered",
      "type": "event"
    },
    {
      "anonymous": false,
      "inputs": [
        {
          "indexed": false,
          "internalType": "address",
          "name": "account",
          "type": "address"
        },
        {
          "indexed": false,
          "internalType": "bytes32",
          "name": "indexhash",
          "type": "bytes32"
        }
      ],
      "name": "oracle_unregistered",
      "type": "event"
    },
    {
      "anonymous": false,
      "inputs": [
        {
          "indexed": false,
          "internalType": "string",
          "name": "fioaddress",
          "type": "string"
        },
        {
          "indexed": false,
          "internalType": "uint256",
          "name": "amount",
          "type": "uint256"
        }
      ],
      "name": "unwrapped",
      "type": "event"
    },
    {
      "anonymous": false,
      "inputs": [
        {
          "indexed": false,
          "internalType": "address",
          "name": "account",
          "type": "address"
        },
        {
          "indexed": false,
          "internalType": "uint256",
          "name": "amount",
          "type": "uint256"
        },
        {
          "indexed": false,
          "internalType": "string",
          "name": "obtid",
          "type": "string"
        }
      ],
      "name": "wrapped",
      "type": "event"
    },
    {
      "inputs": [],
      "name": "CUSTODIAN_ROLE",
      "outputs": [
        {
          "internalType": "bytes32",
          "name": "",
          "type": "bytes32"
        }
      ],
      "stateMutability": "view",
      "type": "function",
      "constant": true
    },
    {
      "inputs": [],
      "name": "DEFAULT_ADMIN_ROLE",
      "outputs": [
        {
          "internalType": "bytes32",
          "name": "",
          "type": "bytes32"
        }
      ],
      "stateMutability": "view",
      "type": "function",
      "constant": true
    },
    {
      "inputs": [],
      "name": "ORACLE_ROLE",
      "outputs": [
        {
          "internalType": "bytes32",
          "name": "",
          "type": "bytes32"
        }
      ],
      "stateMutability": "view",
      "type": "function",
      "constant": true
    },
    {
      "inputs": [],
      "name": "OWNER_ROLE",
      "outputs": [
        {
          "internalType": "bytes32",
          "name": "",
          "type": "bytes32"
        }
      ],
      "stateMutability": "view",
      "type": "function",
      "constant": true
    },
    {
      "inputs": [
        {
          "internalType": "address",
          "name": "owner",
          "type": "address"
        },
        {
          "internalType": "address",
          "name": "spender",
          "type": "address"
        }
      ],
      "name": "allowance",
      "outputs": [
        {
          "internalType": "uint256",
          "name": "",
          "type": "uint256"
        }
      ],
      "stateMutability": "view",
      "type": "function",
      "constant": true
    },
    {
      "inputs": [
        {
          "internalType": "address",
          "name": "spender",
          "type": "address"
        },
        {
          "internalType": "uint256",
          "name": "amount",
          "type": "uint256"
        }
      ],
      "name": "approve",
      "outputs": [
        {
          "internalType": "bool",
          "name": "",
          "type": "bool"
        }
      ],
      "stateMutability": "nonpayable",
      "type": "function"
    },
    {
      "inputs": [
        {
          "internalType": "address",
          "name": "account",
          "type": "address"
        }
      ],
      "name": "balanceOf",
      "outputs": [
        {
          "internalType": "uint256",
          "name": "",
          "type": "uint256"
        }
      ],
      "stateMutability": "view",
      "type": "function",
      "constant": true
    },
    {
      "inputs": [
        {
          "internalType": "uint256",
          "name": "amount",
          "type": "uint256"
        }
      ],
      "name": "burn",
      "outputs": [],
      "stateMutability": "nonpayable",
      "type": "function"
    },
    {
      "inputs": [
        {
          "internalType": "address",
          "name": "account",
          "type": "address"
        },
        {
          "internalType": "uint256",
          "name": "amount",
          "type": "uint256"
        }
      ],
      "name": "burnFrom",
      "outputs": [],
      "stateMutability": "nonpayable",
      "type": "function"
    },
    {
      "inputs": [
        {
          "internalType": "address",
          "name": "spender",
          "type": "address"
        },
        {
          "internalType": "uint256",
          "name": "subtractedValue",
          "type": "uint256"
        }
      ],
      "name": "decreaseAllowance",
      "outputs": [
        {
          "internalType": "bool",
          "name": "",
          "type": "bool"
        }
      ],
      "stateMutability": "nonpayable",
      "type": "function"
    },
    {
      "inputs": [
        {
          "internalType": "bytes32",
          "name": "role",
          "type": "bytes32"
        }
      ],
      "name": "getRoleAdmin",
      "outputs": [
        {
          "internalType": "bytes32",
          "name": "",
          "type": "bytes32"
        }
      ],
      "stateMutability": "view",
      "type": "function",
      "constant": true
    },
    {
      "inputs": [
        {
          "internalType": "bytes32",
          "name": "role",
          "type": "bytes32"
        },
        {
          "internalType": "address",
          "name": "account",
          "type": "address"
        }
      ],
      "name": "grantRole",
      "outputs": [],
      "stateMutability": "nonpayable",
      "type": "function"
    },
    {
      "inputs": [
        {
          "internalType": "bytes32",
          "name": "role",
          "type": "bytes32"
        },
        {
          "internalType": "address",
          "name": "account",
          "type": "address"
        }
      ],
      "name": "hasRole",
      "outputs": [
        {
          "internalType": "bool",
          "name": "",
          "type": "bool"
        }
      ],
      "stateMutability": "view",
      "type": "function",
      "constant": true
    },
    {
      "inputs": [
        {
          "internalType": "address",
          "name": "spender",
          "type": "address"
        },
        {
          "internalType": "uint256",
          "name": "addedValue",
          "type": "uint256"
        }
      ],
      "name": "increaseAllowance",
      "outputs": [
        {
          "internalType": "bool",
          "name": "",
          "type": "bool"
        }
      ],
      "stateMutability": "nonpayable",
      "type": "function"
    },
    {
      "inputs": [],
      "name": "name",
      "outputs": [
        {
          "internalType": "string",
          "name": "",
          "type": "string"
        }
      ],
      "stateMutability": "view",
      "type": "function",
      "constant": true
    },
    {
      "inputs": [],
      "name": "paused",
      "outputs": [
        {
          "internalType": "bool",
          "name": "",
          "type": "bool"
        }
      ],
      "stateMutability": "view",
      "type": "function",
      "constant": true
    },
    {
      "inputs": [
        {
          "internalType": "bytes32",
          "name": "role",
          "type": "bytes32"
        },
        {
          "internalType": "address",
          "name": "account",
          "type": "address"
        }
      ],
      "name": "renounceRole",
      "outputs": [],
      "stateMutability": "nonpayable",
      "type": "function"
    },
    {
      "inputs": [
        {
          "internalType": "bytes32",
          "name": "role",
          "type": "bytes32"
        },
        {
          "internalType": "address",
          "name": "account",
          "type": "address"
        }
      ],
      "name": "revokeRole",
      "outputs": [],
      "stateMutability": "nonpayable",
      "type": "function"
    },
    {
      "inputs": [
        {
          "internalType": "bytes4",
          "name": "interfaceId",
          "type": "bytes4"
        }
      ],
      "name": "supportsInterface",
      "outputs": [
        {
          "internalType": "bool",
          "name": "",
          "type": "bool"
        }
      ],
      "stateMutability": "view",
      "type": "function",
      "constant": true
    },
    {
      "inputs": [],
      "name": "symbol",
      "outputs": [
        {
          "internalType": "string",
          "name": "",
          "type": "string"
        }
      ],
      "stateMutability": "view",
      "type": "function",
      "constant": true
    },
    {
      "inputs": [],
      "name": "totalSupply",
      "outputs": [
        {
          "internalType": "uint256",
          "name": "",
          "type": "uint256"
        }
      ],
      "stateMutability": "view",
      "type": "function",
      "constant": true
    },
    {
      "inputs": [
        {
          "internalType": "address",
          "name": "to",
          "type": "address"
        },
        {
          "internalType": "uint256",
          "name": "amount",
          "type": "uint256"
        }
      ],
      "name": "transfer",
      "outputs": [
        {
          "internalType": "bool",
          "name": "",
          "type": "bool"
        }
      ],
      "stateMutability": "nonpayable",
      "type": "function"
    },
    {
      "inputs": [
        {
          "internalType": "address",
          "name": "from",
          "type": "address"
        },
        {
          "internalType": "address",
          "name": "to",
          "type": "address"
        },
        {
          "internalType": "uint256",
          "name": "amount",
          "type": "uint256"
        }
      ],
      "name": "transferFrom",
      "outputs": [
        {
          "internalType": "bool",
          "name": "",
          "type": "bool"
        }
      ],
      "stateMutability": "nonpayable",
      "type": "function"
    },
    {
      "stateMutability": "payable",
      "type": "receive",
      "payable": true
    },
    {
      "inputs": [],
      "name": "pause",
      "outputs": [],
      "stateMutability": "nonpayable",
      "type": "function"
    },
    {
      "inputs": [],
      "name": "unpause",
      "outputs": [],
      "stateMutability": "nonpayable",
      "type": "function"
    },
    {
      "inputs": [
        {
          "internalType": "address",
          "name": "account",
          "type": "address"
        },
        {
          "internalType": "uint256",
          "name": "amount",
          "type": "uint256"
        },
        {
          "internalType": "string",
          "name": "obtid",
          "type": "string"
        }
      ],
      "name": "wrap",
      "outputs": [],
      "stateMutability": "nonpayable",
      "type": "function"
    },
    {
      "inputs": [
        {
          "internalType": "string",
          "name": "fioaddress",
          "type": "string"
        },
        {
          "internalType": "uint256",
          "name": "amount",
          "type": "uint256"
        }
      ],
      "name": "unwrap",
      "outputs": [],
      "stateMutability": "nonpayable",
      "type": "function"
    },
    {
      "inputs": [
        {
          "internalType": "address",
          "name": "account",
          "type": "address"
        }
      ],
      "name": "getCustodian",
      "outputs": [
        {
          "internalType": "bool",
          "name": "",
          "type": "bool"
        },
        {
          "internalType": "uint32",
          "name": "",
          "type": "uint32"
        }
      ],
      "stateMutability": "view",
      "type": "function",
      "constant": true
    },
    {
      "inputs": [
        {
          "internalType": "address",
          "name": "account",
          "type": "address"
        }
      ],
      "name": "getOracle",
      "outputs": [
        {
          "internalType": "bool",
          "name": "",
          "type": "bool"
        },
        {
          "internalType": "uint32",
          "name": "",
          "type": "uint32"
        }
      ],
      "stateMutability": "view",
      "type": "function",
      "constant": true
    },
    {
      "inputs": [],
      "name": "getOracles",
      "outputs": [
        {
          "internalType": "address[]",
          "name": "",
          "type": "address[]"
        }
      ],
      "stateMutability": "view",
      "type": "function",
      "constant": true
    },
    {
      "inputs": [
        {
          "internalType": "bytes",
          "name": "indexhash",
          "type": "bytes"
        }
      ],
      "name": "getApproval",
      "outputs": [
        {
          "internalType": "uint32",
          "name": "",
          "type": "uint32"
        },
        {
          "internalType": "address",
          "name": "",
          "type": "address"
        },
        {
          "internalType": "uint256",
          "name": "",
          "type": "uint256"
        }
      ],
      "stateMutability": "view",
      "type": "function",
      "constant": true
    },
    {
      "inputs": [
        {
          "internalType": "address",
          "name": "account",
          "type": "address"
        }
      ],
      "name": "regoracle",
      "outputs": [],
      "stateMutability": "nonpayable",
      "type": "function"
    },
    {
      "inputs": [
        {
          "internalType": "address",
          "name": "account",
          "type": "address"
        }
      ],
      "name": "unregoracle",
      "outputs": [],
      "stateMutability": "nonpayable",
      "type": "function"
    },
    {
      "inputs": [
        {
          "internalType": "address",
          "name": "account",
          "type": "address"
        }
      ],
      "name": "regcust",
      "outputs": [],
      "stateMutability": "nonpayable",
      "type": "function"
    },
    {
      "inputs": [
        {
          "internalType": "address",
          "name": "account",
          "type": "address"
        }
      ],
      "name": "unregcust",
      "outputs": [],
      "stateMutability": "nonpayable",
      "type": "function"
    },
    {
      "inputs": [],
      "name": "decimals",
      "outputs": [
        {
          "internalType": "uint8",
          "name": "",
          "type": "uint8"
        }
      ],
      "stateMutability": "view",
      "type": "function",
      "constant": true
    }
  ],
  "bytecode": "0x60806040523480156200001157600080fd5b50604051620036f7380380620036f7833981016040819052620000349162000694565b604080518082018252600c81526b119253c8141c9bdd1bd8dbdb60a21b6020808301918252835180850190945260048452637746494f60e01b9084015281519192916200008491600391620005d1565b5080516200009a906004906020840190620005d1565b50506005805460ff19169055508051600a146200010f5760405162461bcd60e51b815260206004820152602860248201527f7746494f2063616e6e6f74206465706c6f7920776974686f757420313020637560448201526773746f6469616e7360c01b60648201526084015b60405180910390fd5b6200011b338362000316565b62000136600080516020620036d7833981519152336200040a565b60005b600a8160ff161015620002fa5762000186600080516020620036b7833981519152838360ff16815181106200017257620001726200080c565b6020026020010151620004ae60201b60201c565b15620001d55760405162461bcd60e51b815260206004820152601c60248201527f437573746f6469616e20616c7265616479207265676973746572656400000000604482015260640162000106565b62000201600080516020620036d7833981519152838360ff16815181106200017257620001726200080c565b15620002505760405162461bcd60e51b815260206004820152601e60248201527f4f776e657220726f6c652063616e6e6f7420626520637573746f6469616e0000604482015260640162000106565b62000290600080516020620036b7833981519152838360ff16815181106200027c576200027c6200080c565b60200260200101516200040a60201b60201c565b6009828260ff1681518110620002aa57620002aa6200080c565b60209081029190910181015182546001810184556000938452919092200180546001600160a01b0319166001600160a01b0390921691909117905580620002f181620007d3565b91505062000139565b5050600780546001600160401b031916600a1790555062000838565b6001600160a01b0382166200036e5760405162461bcd60e51b815260206004820152601f60248201527f45524332303a206d696e7420746f20746865207a65726f206164647265737300604482015260640162000106565b6200037c60008383620004d9565b80600260008282546200039091906200077b565b90915550506001600160a01b03821660009081526020819052604081208054839290620003bf9084906200077b565b90915550506040518181526001600160a01b038316906000907fddf252ad1be2c89b69c2b068fc378daa952ba7f163c4a11628f55a4df523b3ef9060200160405180910390a35b5050565b60008281526006602090815260408083206001600160a01b038516845290915290205460ff16620004065760008281526006602090815260408083206001600160a01b03851684529091529020805460ff191660011790556200046a3390565b6001600160a01b0316816001600160a01b0316837f2f8788117e7eff1d82e926ec794901d17c78024a50270940304540a733656f0d60405160405180910390a45050565b60009182526006602090815260408084206001600160a01b0393909316845291905290205460ff1690565b6001600160a01b038216301415620005345760405162461bcd60e51b815260206004820152601e60248201527f436f6e74726163742063616e6e6f74207265636569766520746f6b656e730000604482015260640162000106565b6200054c8383836200055160201b620019621760201c565b505050565b620005698383836200054c60201b6200088d1760201c565b60055460ff16156200054c5760405162461bcd60e51b815260206004820152602a60248201527f45524332305061757361626c653a20746f6b656e207472616e736665722077686044820152691a5b19481c185d5cd95960b21b606482015260840162000106565b828054620005df9062000796565b90600052602060002090601f0160209004810192826200060357600085556200064e565b82601f106200061e57805160ff19168380011785556200064e565b828001600101855582156200064e579182015b828111156200064e57825182559160200191906001019062000631565b506200065c92915062000660565b5090565b5b808211156200065c576000815560010162000661565b80516001600160a01b03811681146200068f57600080fd5b919050565b60008060408385031215620006a857600080fd5b8251602080850151919350906001600160401b0380821115620006ca57600080fd5b818601915086601f830112620006df57600080fd5b815181811115620006f457620006f462000822565b8060051b604051601f19603f830116810181811085821117156200071c576200071c62000822565b604052828152858101935084860182860187018b10156200073c57600080fd5b600095505b838610156200076a57620007558162000677565b85526001959095019493860193860162000741565b508096505050505050509250929050565b60008219821115620007915762000791620007f6565b500190565b600181811c90821680620007ab57607f821691505b60208210811415620007cd57634e487b7160e01b600052602260045260246000fd5b50919050565b600060ff821660ff811415620007ed57620007ed620007f6565b60010192915050565b634e487b7160e01b600052601160045260246000fd5b634e487b7160e01b600052603260045260246000fd5b634e487b7160e01b600052604160045260246000fd5b612e6f80620008486000396000f3fe6080604052600436106102135760003560e01c806379cc679011610118578063c0bcfe9c116100a0578063da4baecb1161006f578063da4baecb14610658578063dd62ed3e14610678578063e5690a9914610698578063e58378bb146106b8578063ff3e34a5146106ec57600080fd5b8063c0bcfe9c146105d6578063c79445d0146105f6578063cb5aa7e914610618578063d547741f1461063857600080fd5b806395d89b41116100e757806395d89b4114610522578063a217fddf14610537578063a457c2d71461054c578063a7bf70b91461056c578063a9059cbb146105b657600080fd5b806379cc6790146104ad5780638456cb59146104cd5780638c70c3bd146104e257806391d148541461050257600080fd5b8063313ce5671161019b57806340884c521161016a57806340884c52146103fd57806342966c681461041f5780634fdcaca61461043f5780635c975abb1461045f57806370a082311461047757600080fd5b8063313ce5671461038c57806336568abe146103a857806339509351146103c85780633f4ba83a146103e857600080fd5b806310d3d22e116101e257806310d3d22e146102c957806318160ddd1461030557806323b872dd1461031a578063248a9ca31461033a5780632f2ff15d1461036a57600080fd5b806301ffc9a71461022257806306fdde031461025757806307e2cea514610279578063095ea7b3146102a957600080fd5b3661021d57600080fd5b600080fd5b34801561022e57600080fd5b5061024261023d3660046128cc565b61070c565b60405190151581526020015b60405180910390f35b34801561026357600080fd5b5061026c610743565b60405161024e9190612b2b565b34801561028557600080fd5b5061029b600080516020612e1a83398151915281565b60405190815260200161024e565b3480156102b557600080fd5b506102426102c436600461280f565b6107d5565b3480156102d557600080fd5b506102e96102e4366004612785565b6107ed565b60408051921515835263ffffffff90911660208301520161024e565b34801561031157600080fd5b5060025461029b565b34801561032657600080fd5b506102426103353660046127d3565b610844565b34801561034657600080fd5b5061029b610355366004612890565b60009081526006602052604090206001015490565b34801561037657600080fd5b5061038a6103853660046128a9565b610868565b005b34801561039857600080fd5b506040516009815260200161024e565b3480156103b457600080fd5b5061038a6103c33660046128a9565b610892565b3480156103d457600080fd5b506102426103e336600461280f565b610910565b3480156103f457600080fd5b5061038a610932565b34801561040957600080fd5b5061041261095d565b60405161024e9190612a77565b34801561042b57600080fd5b5061038a61043a366004612890565b6109be565b34801561044b57600080fd5b5061038a61045a366004612785565b6109c8565b34801561046b57600080fd5b5060055460ff16610242565b34801561048357600080fd5b5061029b610492366004612785565b6001600160a01b031660009081526020819052604090205490565b3480156104b957600080fd5b5061038a6104c836600461280f565b610d20565b3480156104d957600080fd5b5061038a610d35565b3480156104ee57600080fd5b5061038a6104fd36600461293f565b610d5d565b34801561050e57600080fd5b5061024261051d3660046128a9565b610e01565b34801561052e57600080fd5b5061026c610e2c565b34801561054357600080fd5b5061029b600081565b34801561055857600080fd5b5061024261056736600461280f565b610e3b565b34801561057857600080fd5b5061058c6105873660046128f6565b610eb6565b6040805163ffffffff90941684526001600160a01b0390921660208401529082015260600161024e565b3480156105c257600080fd5b506102426105d136600461280f565b610f83565b3480156105e257600080fd5b5061038a6105f1366004612785565b610f91565b34801561060257600080fd5b5061029b600080516020612dfa83398151915281565b34801561062457600080fd5b506102e9610633366004612785565b61118d565b34801561064457600080fd5b5061038a6106533660046128a9565b6111e2565b34801561066457600080fd5b5061038a610673366004612839565b611207565b34801561068457600080fd5b5061029b6106933660046127a0565b6113f1565b3480156106a457600080fd5b5061038a6106b3366004612785565b61141c565b3480156106c457600080fd5b5061029b7fb19546dff01e856fb3f010c267a7b1c60363cf8a4664e21cc89c26224620214e81565b3480156106f857600080fd5b5061038a610707366004612785565b61162b565b60006001600160e01b03198216637965db0b60e01b148061073d57506301ffc9a760e01b6001600160e01b03198316145b92915050565b60606003805461075290612d34565b80601f016020809104026020016040519081016040528092919081815260200182805461077e90612d34565b80156107cb5780601f106107a0576101008083540402835291602001916107cb565b820191906000526020600020905b8154815290600101906020018083116107ae57829003601f168201915b5050505050905090565b6000336107e38185856119c8565b5060019392505050565b6000806001600160a01b03831661081f5760405162461bcd60e51b815260040161081690612b60565b60405180910390fd5b610837600080516020612e1a83398151915284610e01565b6008549094909350915050565b600033610852858285611aec565b61085d858585611b66565b506001949350505050565b60008281526006602052604090206001015461088381611d3f565b61088d8383611d49565b505050565b6001600160a01b03811633146109025760405162461bcd60e51b815260206004820152602f60248201527f416363657373436f6e74726f6c3a2063616e206f6e6c792072656e6f756e636560448201526e103937b632b9903337b91039b2b63360891b6064820152608401610816565b61090c8282611dcf565b5050565b6000336107e381858561092383836113f1565b61092d9190612bd7565b6119c8565b600080516020612dfa83398151915261094a81611d3f565b610952611e36565b61095a611e81565b50565b606060088054806020026020016040519081016040528092919081815260200182805480156107cb57602002820191906000526020600020905b81546001600160a01b03168152600190910190602001808311610997575050505050905090565b61095a3382611ed3565b600080516020612dfa8339815191526109e081611d3f565b6001600160a01b038216610a065760405162461bcd60e51b815260040161081690612b60565b600754600364010000000090910463ffffffff1611610a675760405162461bcd60e51b815260206004820152601a60248201527f4d696e696d756d2033206f7261636c65732072657175697265640000000000006044820152606401610816565b6000600283604051602001610a7d929190612ac4565b604051602081830303815290604052805190602001209050610aad600080516020612e1a83398151915284610e01565b610af15760405162461bcd60e51b815260206004820152601560248201527413dc9858db19481b9bdd081c9959da5cdd195c9959605a1b6044820152606401610816565b610aff81600185600061202d565b15610cb357610b1c600080516020612e1a83398151915284611dcf565b60078054640100000000900463ffffffff16906004610b3a83612d14565b91906101000a81548163ffffffff021916908363ffffffff1602179055505060005b60085461ffff82161015610c6e57836001600160a01b031660088261ffff1681548110610b8b57610b8b612dcd565b6000918252602090912001546001600160a01b03161415610c5c5760088054610bb690600190612c93565b81548110610bc657610bc6612dcd565b600091825260209091200154600880546001600160a01b039092169161ffff8416908110610bf657610bf6612dcd565b9060005260206000200160006101000a8154816001600160a01b0302191690836001600160a01b031602179055506008805480610c3557610c35612db7565b600082815260209020810160001990810180546001600160a01b0319169055019055610c6e565b80610c6681612d69565b915050610b5c565b50604080516001600160a01b0385168152602081018390527fe4d21301551b3d87dc269fc8b9d5a5c1432831c3c321ef19570b8a93a10cb52291015b60405180910390a15b6040805160808082526009908201526831bab9ba37b234b0b760b91b60a082015233602082015260c08183018190526000908201526060810183905290517f3be8840aec3e3998ee1e020dd20a8ea88430534d4e16feeeb1762ea4428464cd9181900360e00190a1505050565b610d2b823383611aec565b61090c8282611ed3565b600080516020612dfa833981519152610d4d81611d3f565b610d556122fa565b61095a612340565b610d656122fa565b60038251118015610d7857506040825111155b610dba5760405162461bcd60e51b8152602060048201526013602482015272496e76616c69642046494f204164647265737360681b6044820152606401610816565b610dc43382611ed3565b7fcbc81eff77955b99685533d29441743baaced5a53ed539d634490e5380a8dcf08282604051610df5929190612b3e565b60405180910390a15050565b60009182526006602090815260408084206001600160a01b0393909316845291905290205460ff1690565b60606004805461075290612d34565b60003381610e4982866113f1565b905083811015610ea95760405162461bcd60e51b815260206004820152602560248201527f45524332303a2064656372656173656420616c6c6f77616e63652062656c6f77604482015264207a65726f60d81b6064820152608401610816565b61085d82868684036119c8565b600080600080845111610efb5760405162461bcd60e51b815260206004820152600d60248201526c125b9d985b1a59081bd89d1a59609a1b6044820152606401610816565b600a6000610f0886612caa565b8152602081019190915260400160009081206001015463ffffffff1690600a90610f3187612caa565b815260200190815260200160002060010160049054906101000a90046001600160a01b0316600a600087610f6490612caa565b8152602001908152602001600020600201549250925092509193909250565b6000336107e3818585611b66565b600080516020612dfa833981519152610fa981611d3f565b6001600160a01b038216610fcf5760405162461bcd60e51b815260040161081690612b60565b6001600160a01b03821633141561101f5760405162461bcd60e51b815260206004820152601460248201527321b0b73737ba103932b3b4b9ba32b91039b2b63360611b6044820152606401610816565b6000600383604051602001611035929190612ac4565b604051602081830303815290604052805190602001209050611065600080516020612dfa83398151915284610e01565b156110a75760405162461bcd60e51b8152602060048201526012602482015271105b1c9958591e481c9959da5cdd195c995960721b6044820152606401610816565b6110b581600185600061202d565b15610cb3576110d2600080516020612dfa83398151915284611d49565b6007805463ffffffff169060006110e883612d8b565b82546101009290920a63ffffffff81810219909316919092169190910217905550600980546001810182556000919091527f6e1540171b6c0c960b71a7020d9f60077f6af931a8bbf590da0223dacf75c7af0180546001600160a01b0319166001600160a01b03851690811790915560408051918252602082018390527f4f4b5dcea44dd9a0d4582de1f0b930ffdd296bd645df66b73ff1795f43e7dc119101610caa565b6000806001600160a01b0383166111b65760405162461bcd60e51b815260040161081690612b60565b6111ce600080516020612dfa83398151915284610e01565b600754909463ffffffff9091169350915050565b6000828152600660205260409020600101546111fd81611d3f565b61088d8383611dcf565b600080516020612e1a83398151915261121f81611d3f565b6112276122fa565b670de0b6b3a7640000831061123b57600080fd5b600082511161127c5760405162461bcd60e51b815260206004820152600d60248201526c125b9d985b1a59081bd89d1a59609a1b6044820152606401610816565b6001600160a01b0384166112c45760405162461bcd60e51b815260206004820152600f60248201526e125b9d985b1a59081858d8dbdd5b9d608a1b6044820152606401610816565b600754600364010000000090910463ffffffff1610156113265760405162461bcd60e51b815260206004820152601c60248201527f4f7261636c6573206d7573742062652033206f722067726561746572000000006044820152606401610816565b60008083858760405160200161133f9493929190612aea565b604051602081830303815290604052805190602001209050611364816000878761202d565b156113af57611373858561237d565b7fbfb8a2f9b4d8e8ed83a83aedac91756186665fbf1f57e39619d757180619bf988585856040516113a693929190612a47565b60405180910390a15b7f3be8840aec3e3998ee1e020dd20a8ea88430534d4e16feeeb1762ea4428464cd3384836040516113e293929190612b89565b60405180910390a15050505050565b6001600160a01b03918216600090815260016020908152604080832093909416825291909152205490565b600080516020612dfa83398151915261143481611d3f565b6001600160a01b03821661145a5760405162461bcd60e51b815260040161081690612b60565b6001600160a01b0382163314156114aa5760405162461bcd60e51b815260206004820152601460248201527321b0b73737ba103932b3b4b9ba32b91039b2b63360611b6044820152606401610816565b6114c2600080516020612e1a83398151915283610e01565b1561150f5760405162461bcd60e51b815260206004820152601960248201527f4f7261636c6520616c72656164792072656769737465726564000000000000006044820152606401610816565b6000600183604051602001611525929190612ac4565b60405160208183030381529060405280519060200120905061154b81600185600061202d565b15610cb357611568600080516020612e1a83398151915284611d49565b60078054640100000000900463ffffffff1690600461158683612d8b565b82546101009290920a63ffffffff81810219909316919092169190910217905550600880546001810182556000919091527ff3f7a9fe364faab93b216da50a3214154f22a0a2b415b23a84c8169e8b636ee30180546001600160a01b0319166001600160a01b03851690811790915560408051918252602082018390527ffde1904d2f36e8247a68b76a38b2dc6908f769438b6bb8f173ee39a2c01f2b589101610caa565b600080516020612dfa83398151915261164381611d3f565b6001600160a01b0382166116695760405162461bcd60e51b815260040161081690612b60565b611681600080516020612dfa83398151915283610e01565b6116cd5760405162461bcd60e51b815260206004820152601860248201527f437573746f6469616e206e6f74207265676973746572656400000000000000006044820152606401610816565b6007805463ffffffff16116117245760405162461bcd60e51b815260206004820152601960248201527f4d75737420636f6e7461696e203720637573746f6469616e73000000000000006044820152606401610816565b600060048360405160200161173a929190612ac4565b60405160208183030381529060405280519060200120905061176a600080516020612dfa83398151915284610e01565b6117ad5760405162461bcd60e51b8152602060048201526014602482015273105b1c9958591e481d5b9c9959da5cdd195c995960621b6044820152606401610816565b6117bb81600185600061202d565b15610cb3576117d8600080516020612dfa83398151915284611dcf565b6007805463ffffffff169060006117ee83612d14565b91906101000a81548163ffffffff021916908363ffffffff1602179055505060005b60095461ffff8216101561192257836001600160a01b031660098261ffff168154811061183f5761183f612dcd565b6000918252602090912001546001600160a01b03161415611910576009805461186a90600190612c93565b8154811061187a5761187a612dcd565b600091825260209091200154600980546001600160a01b039092169161ffff84169081106118aa576118aa612dcd565b9060005260206000200160006101000a8154816001600160a01b0302191690836001600160a01b0316021790555060098054806118e9576118e9612db7565b600082815260209020810160001990810180546001600160a01b0319169055019055611922565b8061191a81612d69565b915050611810565b50604080516001600160a01b0385168152602081018390527f0cf142c25ce5b399a7953be52d40c8596def04c010697715ab9c72f4962d1a2d9101610caa565b60055460ff161561088d5760405162461bcd60e51b815260206004820152602a60248201527f45524332305061757361626c653a20746f6b656e207472616e736665722077686044820152691a5b19481c185d5cd95960b21b6064820152608401610816565b6001600160a01b038316611a2a5760405162461bcd60e51b8152602060048201526024808201527f45524332303a20617070726f76652066726f6d20746865207a65726f206164646044820152637265737360e01b6064820152608401610816565b6001600160a01b038216611a8b5760405162461bcd60e51b815260206004820152602260248201527f45524332303a20617070726f766520746f20746865207a65726f206164647265604482015261737360f01b6064820152608401610816565b6001600160a01b0383811660008181526001602090815260408083209487168084529482529182902085905590518481527f8c5be1e5ebec7d5bd14f71427d1e84f3dd0314c0f7b2291e5b200ac8c7c3b925910160405180910390a3505050565b6000611af884846113f1565b90506000198114611b605781811015611b535760405162461bcd60e51b815260206004820152601d60248201527f45524332303a20696e73756666696369656e7420616c6c6f77616e63650000006044820152606401610816565b611b6084848484036119c8565b50505050565b6001600160a01b038316611bca5760405162461bcd60e51b815260206004820152602560248201527f45524332303a207472616e736665722066726f6d20746865207a65726f206164604482015264647265737360d81b6064820152608401610816565b6001600160a01b038216611c2c5760405162461bcd60e51b815260206004820152602360248201527f45524332303a207472616e7366657220746f20746865207a65726f206164647260448201526265737360e81b6064820152608401610816565b611c37838383612468565b6001600160a01b03831660009081526020819052604090205481811015611caf5760405162461bcd60e51b815260206004820152602660248201527f45524332303a207472616e7366657220616d6f756e7420657863656564732062604482015265616c616e636560d01b6064820152608401610816565b6001600160a01b03808516600090815260208190526040808220858503905591851681529081208054849290611ce6908490612bd7565b92505081905550826001600160a01b0316846001600160a01b03167fddf252ad1be2c89b69c2b068fc378daa952ba7f163c4a11628f55a4df523b3ef84604051611d3291815260200190565b60405180910390a3611b60565b61095a81336124cc565b611d538282610e01565b61090c5760008281526006602090815260408083206001600160a01b03851684529091529020805460ff19166001179055611d8b3390565b6001600160a01b0316816001600160a01b0316837f2f8788117e7eff1d82e926ec794901d17c78024a50270940304540a733656f0d60405160405180910390a45050565b611dd98282610e01565b1561090c5760008281526006602090815260408083206001600160a01b0385168085529252808320805460ff1916905551339285917ff6391f5c32d9c69d2a47ea670b442974b53935d1edc7fd64eb21e047a839171b9190a45050565b60055460ff16611e7f5760405162461bcd60e51b815260206004820152601460248201527314185d5cd8589b194e881b9bdd081c185d5cd95960621b6044820152606401610816565b565b611e89611e36565b6005805460ff191690557f5db9ee0a495bf2e6ff9c91a7834c1ba4fdd244a5e8aa4e537bd38aeae4b073aa335b6040516001600160a01b03909116815260200160405180910390a1565b6001600160a01b038216611f335760405162461bcd60e51b815260206004820152602160248201527f45524332303a206275726e2066726f6d20746865207a65726f206164647265736044820152607360f81b6064820152608401610816565b611f3f82600083612468565b6001600160a01b03821660009081526020819052604090205481811015611fb35760405162461bcd60e51b815260206004820152602260248201527f45524332303a206275726e20616d6f756e7420657863656564732062616c616e604482015261636560f01b6064820152608401610816565b6001600160a01b0383166000908152602081905260408120838303905560028054849290611fe2908490612c93565b90915550506040518281526000906001600160a01b038516907fddf252ad1be2c89b69c2b068fc378daa952ba7f163c4a11628f55a4df523b3ef9060200160405180910390a3505050565b6000848152600a602052604081206003015460ff161561208f5760405162461bcd60e51b815260206004820152601960248201527f417070726f76616c20616c726561647920636f6d706c657465000000000000006044820152606401610816565b600754640100000000900463ffffffff1660ff8516600114156120db576007546003906120c39063ffffffff166002612c67565b6120cd9190612c17565b6120d8906001612bef565b90505b6000868152600a602052604090206001015463ffffffff16612134576000868152600a60205260409020600281018490556001018054640100000000600160c01b0319166401000000006001600160a01b038716021790555b6000868152600a602052604090206001015463ffffffff808316911610156122da576000868152600a6020908152604080832033845290915290205460ff16156121ce5760405162461bcd60e51b815260206004820152602560248201527f6f7261636c652068617320616c726561647920617070726f7665642074686973604482015264040d0c2e6d60db1b6064820152608401610816565b6000868152600a60208181526040808420338552808352908420805460ff191660019081179091558a85529290915201805463ffffffff169161221083612d8b565b82546101009290920a63ffffffff8181021990931691831602179091556000888152600a602052604090206001015483821691161090506122da576000868152600a6020908152604080832033845290915290205460ff166122b45760405162461bcd60e51b815260206004820181905260248201527f416e20617070726f76696e67206f7261636c65206d75737420657865637574656044820152606401610816565b50506000848152600a60205260409020600301805460ff191660019081179091556122f2565b50506000848152600a602052604090206003015460ff165b949350505050565b60055460ff1615611e7f5760405162461bcd60e51b815260206004820152601060248201526f14185d5cd8589b194e881c185d5cd95960821b6044820152606401610816565b6123486122fa565b6005805460ff191660011790557f62e78cea01bee320cd4e420270b5ea74000d11b0c9f74754ebdbfc544b05a258611eb63390565b6001600160a01b0382166123d35760405162461bcd60e51b815260206004820152601f60248201527f45524332303a206d696e7420746f20746865207a65726f2061646472657373006044820152606401610816565b6123df60008383612468565b80600260008282546123f19190612bd7565b90915550506001600160a01b0382166000908152602081905260408120805483929061241e908490612bd7565b90915550506040518181526001600160a01b038316906000907fddf252ad1be2c89b69c2b068fc378daa952ba7f163c4a11628f55a4df523b3ef9060200160405180910390a35050565b6001600160a01b0382163014156124c15760405162461bcd60e51b815260206004820152601e60248201527f436f6e74726163742063616e6e6f74207265636569766520746f6b656e7300006044820152606401610816565b61088d838383611962565b6124d68282610e01565b61090c576124ee816001600160a01b03166014612530565b6124f9836020612530565b60405160200161250a9291906129d2565b60408051601f198184030181529082905262461bcd60e51b825261081691600401612b2b565b6060600061253f836002612c48565b61254a906002612bd7565b67ffffffffffffffff81111561256257612562612de3565b6040519080825280601f01601f19166020018201604052801561258c576020820181803683370190505b509050600360fc1b816000815181106125a7576125a7612dcd565b60200101906001600160f81b031916908160001a905350600f60fb1b816001815181106125d6576125d6612dcd565b60200101906001600160f81b031916908160001a90535060006125fa846002612c48565b612605906001612bd7565b90505b600181111561267d576f181899199a1a9b1b9c1cb0b131b232b360811b85600f166010811061263957612639612dcd565b1a60f81b82828151811061264f5761264f612dcd565b60200101906001600160f81b031916908160001a90535060049490941c9361267681612cfd565b9050612608565b5083156126cc5760405162461bcd60e51b815260206004820181905260248201527f537472696e67733a20686578206c656e67746820696e73756666696369656e746044820152606401610816565b9392505050565b600067ffffffffffffffff808411156126ee576126ee612de3565b604051601f8501601f19908116603f0116810190828211818310171561271657612716612de3565b8160405280935085815286868601111561272f57600080fd5b858560208301376000602087830101525050509392505050565b80356001600160a01b038116811461276057600080fd5b919050565b600082601f83011261277657600080fd5b6126cc838335602085016126d3565b60006020828403121561279757600080fd5b6126cc82612749565b600080604083850312156127b357600080fd5b6127bc83612749565b91506127ca60208401612749565b90509250929050565b6000806000606084860312156127e857600080fd5b6127f184612749565b92506127ff60208501612749565b9150604084013590509250925092565b6000806040838503121561282257600080fd5b61282b83612749565b946020939093013593505050565b60008060006060848603121561284e57600080fd5b61285784612749565b925060208401359150604084013567ffffffffffffffff81111561287a57600080fd5b61288686828701612765565b9150509250925092565b6000602082840312156128a257600080fd5b5035919050565b600080604083850312156128bc57600080fd5b823591506127ca60208401612749565b6000602082840312156128de57600080fd5b81356001600160e01b0319811681146126cc57600080fd5b60006020828403121561290857600080fd5b813567ffffffffffffffff81111561291f57600080fd5b8201601f8101841361293057600080fd5b6122f2848235602084016126d3565b6000806040838503121561295257600080fd5b823567ffffffffffffffff81111561296957600080fd5b61297585828601612765565b95602094909401359450505050565b600581106129a257634e487b7160e01b600052602160045260246000fd5b9052565b600081518084526129be816020860160208601612cd1565b601f01601f19169290920160200192915050565b7f416363657373436f6e74726f6c3a206163636f756e7420000000000000000000815260008351612a0a816017850160208801612cd1565b7001034b99036b4b9b9b4b733903937b6329607d1b6017918401918201528351612a3b816028840160208801612cd1565b01602801949350505050565b60018060a01b0384168152826020820152606060408201526000612a6e60608301846129a6565b95945050505050565b6020808252825182820181905260009190848201906040850190845b81811015612ab85783516001600160a01b031683529284019291840191600101612a93565b50909695505050505050565b60408101612ad28285612984565b6001600160a01b039290921660209190910152919050565b612af48186612984565b608060208201526000612b0a60808301866129a6565b6040830194909452506001600160a01b039190911660609091015292915050565b6020815260006126cc60208301846129a6565b604081526000612b5160408301856129a6565b90508260208301529392505050565b6020808252600f908201526e496e76616c6964206164647265737360881b604082015260600190565b6080815260066080820152656f7261636c6560d01b60a082015260018060a01b038416602082015260c060408201526000612bc760c08301856129a6565b9050826060830152949350505050565b60008219821115612bea57612bea612da1565b500190565b600063ffffffff808316818516808303821115612c0e57612c0e612da1565b01949350505050565b600063ffffffff80841680612c3c57634e487b7160e01b600052601260045260246000fd5b92169190910492915050565b6000816000190483118215151615612c6257612c62612da1565b500290565b600063ffffffff80831681851681830481118215151615612c8a57612c8a612da1565b02949350505050565b600082821015612ca557612ca5612da1565b500390565b80516020808301519190811015612ccb576000198160200360031b1b821691505b50919050565b60005b83811015612cec578181015183820152602001612cd4565b83811115611b605750506000910152565b600081612d0c57612d0c612da1565b506000190190565b600063ffffffff821680612d2a57612d2a612da1565b6000190192915050565b600181811c90821680612d4857607f821691505b60208210811415612ccb57634e487b7160e01b600052602260045260246000fd5b600061ffff80831681811415612d8157612d81612da1565b6001019392505050565b600063ffffffff80831681811415612d8157612d815b634e487b7160e01b600052601160045260246000fd5b634e487b7160e01b600052603160045260246000fd5b634e487b7160e01b600052603260045260246000fd5b634e487b7160e01b600052604160045260246000fdfee28434228950b641dbbc0178de89daa359a87c6ee0d8399aeace52a98fe902b968e79a7bf1e0bc45d0a330c573bc367f9cf464fd326078812f301165fbda4ef1a26469706673582212206260b2bdce4ea48c1936895a12dd98b7044ba98062329e4a8a82608c26133c4a64736f6c63430008070033e28434228950b641dbbc0178de89daa359a87c6ee0d8399aeace52a98fe902b9b19546dff01e856fb3f010c267a7b1c60363cf8a4664e21cc89c26224620214e",
  "immutableReferences": {},
  "source": "// SPDX-License-Identifier: MIT\n// FIO Protocol ERC20 and Oracle Contract\n// Adam Androulidakis 2/2021\n// Prototype: Do not use in production\n\npragma solidity 0.8.7;\n\nimport \"@openzeppelin/contracts/token/ERC20/ERC20.sol\";\nimport \"@openzeppelin/contracts/token/ERC20/extensions/ERC20Burnable.sol\";\nimport \"@openzeppelin/contracts/token/ERC20/extensions/ERC20Pausable.sol\";\nimport \"@openzeppelin/contracts/access/AccessControl.sol\";\n\ncontract WFIO is ERC20Burnable, ERC20Pausable, AccessControl {\n\n    uint256 constant MINTABLE = 1e18;\n\n    bytes32 public constant ORACLE_ROLE = keccak256(\"ORACLE_ROLE\");\n    bytes32 public constant OWNER_ROLE = keccak256(\"OWNER_ROLE\");\n    bytes32 public constant CUSTODIAN_ROLE = keccak256(\"CUSTODIAN_ROLE\");\n\n    enum ApprovalType {\n        Wrap,\n        AddOracle,\n        RemoveOracle,\n        AddCustodian,\n        RemoveCustodian\n    }\n\n    struct pending {\n      mapping (address => bool) approved;\n      uint32 approvals;\n      address account;\n      uint256 amount;\n      bool complete;\n    }\n\n    uint32 custodian_count;\n    uint32 oracle_count;\n\n    event unwrapped(string fioaddress, uint256 amount);\n    event wrapped(address account, uint256 amount, string obtid);\n    event custodian_unregistered(address account, bytes32 indexhash);\n    event custodian_registered(address account, bytes32 indexhash);\n    event oracle_unregistered(address account, bytes32 indexhash);\n    event oracle_registered(address account, bytes32 indexhash);\n    event consensus_activity(string signer, address account, string obtid, bytes32 indexhash);\n\n    address[] oraclelist;\n    address[] custodianlist;\n\n    mapping ( bytes32 => pending) approvals; // bytes32 hash can be any obtid\n\n    constructor(uint256 _initialSupply, address[] memory newcustodians ) ERC20(\"FIO Protocol\", \"wFIO\") {\n      require(newcustodians.length == 10, \"wFIO cannot deploy without 10 custodians\");\n      _mint(msg.sender, _initialSupply);\n      _grantRole(OWNER_ROLE, msg.sender);\n\n      for (uint8 i = 0; i < 10; i++ ) {\n        require(!hasRole(CUSTODIAN_ROLE, newcustodians[i]), \"Custodian already registered\");\n        require(!hasRole(OWNER_ROLE, newcustodians[i]), \"Owner role cannot be custodian\");\n        _grantRole(CUSTODIAN_ROLE, newcustodians[i]);\n        custodianlist.push(newcustodians[i]);\n      }\n      custodian_count = 10;\n      oracle_count = 0;\n    }\n\n    function pause() external onlyRole(CUSTODIAN_ROLE) whenNotPaused{\n        _pause();\n    }\n\n    function unpause() external onlyRole(CUSTODIAN_ROLE)whenPaused{\n        _unpause();\n    }\n\n    //Precondition: Roles must be checked in parent functions. This should only be called by authorized oracle or custodian\n    function getConsensus(bytes32 hash, uint8 Type, address account, uint256 amount) internal returns (bool){\n      require(!approvals[hash].complete, \"Approval already complete\");\n\n      uint32 APPROVALS_NEEDED = oracle_count;\n      if (Type == 1) {\n        APPROVALS_NEEDED = custodian_count * 2 / 3 + 1;\n      }\n      if (approvals[hash].approvals == 0) {\n        approvals[hash].amount = amount;\n        approvals[hash].account = account;\n      }\n      if (approvals[hash].approvals < APPROVALS_NEEDED) {\n        require(!approvals[hash].approved[msg.sender], \"oracle has already approved this hash\");\n        approvals[hash].approved[msg.sender] = true;\n        approvals[hash].approvals++;\n         //moving this if block after the parent if block will allow the execution to take place immediately instead of requiring a subsequent call \n        if (approvals[hash].approvals >= APPROVALS_NEEDED) {\n          require(approvals[hash].approved[msg.sender], \"An approving oracle must execute\");\n          approvals[hash].complete = true;\n          return approvals[hash].complete;\n        }\n      }\n      return approvals[hash].complete;\n    }\n\n\n    function wrap(address account, uint256 amount, string memory obtid) external onlyRole(ORACLE_ROLE) whenNotPaused{\n      require(amount < MINTABLE);\n      require(bytes(obtid).length > 0, \"Invalid obtid\");\n      require(account != address(0), \"Invalid account\");\n      require(oracle_count >= 3, \"Oracles must be 3 or greater\");\n      bytes32 indexhash = keccak256(bytes(abi.encode(ApprovalType.Wrap, obtid, amount, account)));\n\n      if (getConsensus(indexhash, 0, account, amount)) {\n         _mint(account, amount);\n         emit wrapped(account, amount, obtid);\n      }\n\n      emit consensus_activity(\"oracle\", msg.sender, obtid, indexhash);\n\n    }\n\n    function unwrap(string memory fioaddress, uint256 amount) external whenNotPaused{\n      require(bytes(fioaddress).length > 3 && bytes(fioaddress).length <= 64, \"Invalid FIO Address\");\n      _burn(msg.sender, amount);\n      emit unwrapped(fioaddress, amount);\n    }\n\n    function _beforeTokenTransfer(address from, address to, uint256 amount) internal override(ERC20, ERC20Pausable) {\n        require(to != address(this), \"Contract cannot receive tokens\");\n        super._beforeTokenTransfer(from, to, amount);\n    }\n\n\n    function getCustodian(address account) external view returns (bool, uint32) {\n      require(account != address(0), \"Invalid address\");\n      return (hasRole(CUSTODIAN_ROLE, account), custodian_count);\n    }\n\n    function getOracle(address account) external view returns (bool, uint32) {\n      require(account != address(0), \"Invalid address\");\n      return (hasRole(ORACLE_ROLE, account), uint32(oraclelist.length));\n    }\n\n    function getOracles() external view returns(address[] memory) {\n      return oraclelist;\n    }\n\n    function getApproval(bytes memory indexhash) external view returns (uint32, address, uint256) {\n      require(indexhash.length > 0, \"Invalid obtid\");\n      return (approvals[bytes32(indexhash)].approvals, approvals[bytes32(indexhash)].account, approvals[bytes32(indexhash)].amount);\n    }\n\n    function regoracle(address account) external onlyRole(CUSTODIAN_ROLE)  {\n      require(account != address(0), \"Invalid address\");\n      require(account != msg.sender, \"Cannot register self\");\n      require(!hasRole(ORACLE_ROLE, account), \"Oracle already registered\");\n      bytes32 indexhash = keccak256(bytes(abi.encode(ApprovalType.AddOracle,account )));\n      if (getConsensus(indexhash, 1, account, 0)){\n        _grantRole(ORACLE_ROLE, account);\n        oracle_count++;\n        oraclelist.push(account);\n        emit oracle_registered(account, indexhash);\n      }\n      emit consensus_activity(\"custodian\", msg.sender, \"\", indexhash);\n    }\n\n    function unregoracle(address account) external onlyRole(CUSTODIAN_ROLE) {\n      require(account != address(0), \"Invalid address\");\n      require(oracle_count > 3, \"Minimum 3 oracles required\");\n      bytes32 indexhash = keccak256(bytes(abi.encode(ApprovalType.RemoveOracle,account)));\n      require(hasRole(ORACLE_ROLE, account), \"Oracle not registered\");\n      if ( getConsensus(indexhash, 1, account, 0)) {\n          _revokeRole(ORACLE_ROLE, account);\n          oracle_count--;\n          for(uint16 i = 0; i < oraclelist.length; i++) {\n            if(oraclelist[i] == account) {\n              oraclelist[i] = oraclelist[oraclelist.length - 1];\n              oraclelist.pop();\n              break;\n            }\n          }\n          emit oracle_unregistered(account, indexhash);\n      }\n      emit consensus_activity(\"custodian\", msg.sender, \"\", indexhash);\n\n    } // unregoracle\n\n    function regcust(address account) external onlyRole(CUSTODIAN_ROLE) {\n      require(account != address(0), \"Invalid address\");\n      require(account != msg.sender, \"Cannot register self\");\n      bytes32 indexhash = keccak256(bytes(abi.encode(ApprovalType.AddCustodian,account)));\n      require(!hasRole(CUSTODIAN_ROLE, account), \"Already registered\");\n      if (getConsensus(indexhash, 1, account, 0)) {\n        _grantRole(CUSTODIAN_ROLE, account);\n        custodian_count++;\n        custodianlist.push(account);\n        emit custodian_registered(account, indexhash);\n      }\n      emit consensus_activity(\"custodian\", msg.sender, \"\", indexhash);\n    }\n\n    function unregcust(address account) external onlyRole(CUSTODIAN_ROLE) {\n      require(account != address(0), \"Invalid address\");\n      require(hasRole(CUSTODIAN_ROLE, account), \"Custodian not registered\");\n      require(custodian_count > 7, \"Must contain 7 custodians\");\n      bytes32 indexhash = keccak256(bytes(abi.encode(ApprovalType.RemoveCustodian,account)));\n      require(hasRole(CUSTODIAN_ROLE, account), \"Already unregistered\");\n      if (getConsensus(indexhash, 1, account, 0)) {\n          _revokeRole(CUSTODIAN_ROLE, account);\n          custodian_count--;\n          for(uint16 i = 0; i < custodianlist.length; i++) {\n            if(custodianlist[i] == account) {\n              custodianlist[i] = custodianlist[custodianlist.length - 1];\n              custodianlist.pop();\n              break;\n            }\n          }\n          emit custodian_unregistered(account, indexhash);\n      }\n      emit consensus_activity(\"custodian\", msg.sender, \"\", indexhash);\n    } //unregcustodian\n\n    // ------------------------------------------------------------------------\n    // Don't accept ETH\n    // ------------------------------------------------------------------------\n    receive () external payable {\n        revert();\n    }\n\n    function decimals() public view virtual override returns (uint8) {\n      return 9;\n    }\n}\n",
  "sourcePath": "/Users/adam/repos/fio.erc20/contracts/wfio.sol",
  "compiler": {
    "name": "solc",
    "version": "0.8.7+commit.e28d00a7.Emscripten.clang"
  },
  "schemaVersion": "3.4.4",
  "updatedAt": "2022-10-05T16:01:41.967Z",
  "networkType": "ethereum",
  "devdoc": {
    "kind": "dev",
    "methods": {
      "allowance(address,address)": {
        "details": "See {IERC20-allowance}."
      },
      "approve(address,uint256)": {
        "details": "See {IERC20-approve}. NOTE: If `amount` is the maximum `uint256`, the allowance is not updated on `transferFrom`. This is semantically equivalent to an infinite approval. Requirements: - `spender` cannot be the zero address."
      },
      "balanceOf(address)": {
        "details": "See {IERC20-balanceOf}."
      },
      "burn(uint256)": {
        "details": "Destroys `amount` tokens from the caller. See {ERC20-_burn}."
      },
      "burnFrom(address,uint256)": {
        "details": "Destroys `amount` tokens from `account`, deducting from the caller's allowance. See {ERC20-_burn} and {ERC20-allowance}. Requirements: - the caller must have allowance for ``accounts``'s tokens of at least `amount`."
      },
      "decimals()": {
        "details": "Returns the number of decimals used to get its user representation. For example, if `decimals` equals `2`, a balance of `505` tokens should be displayed to a user as `5.05` (`505 / 10 ** 2`). Tokens usually opt for a value of 18, imitating the relationship between Ether and Wei. This is the value {ERC20} uses, unless this function is overridden; NOTE: This information is only used for _display_ purposes: it in no way affects any of the arithmetic of the contract, including {IERC20-balanceOf} and {IERC20-transfer}."
      },
      "decreaseAllowance(address,uint256)": {
        "details": "Atomically decreases the allowance granted to `spender` by the caller. This is an alternative to {approve} that can be used as a mitigation for problems described in {IERC20-approve}. Emits an {Approval} event indicating the updated allowance. Requirements: - `spender` cannot be the zero address. - `spender` must have allowance for the caller of at least `subtractedValue`."
      },
      "getRoleAdmin(bytes32)": {
        "details": "Returns the admin role that controls `role`. See {grantRole} and {revokeRole}. To change a role's admin, use {_setRoleAdmin}."
      },
      "grantRole(bytes32,address)": {
        "details": "Grants `role` to `account`. If `account` had not been already granted `role`, emits a {RoleGranted} event. Requirements: - the caller must have ``role``'s admin role. May emit a {RoleGranted} event."
      },
      "hasRole(bytes32,address)": {
        "details": "Returns `true` if `account` has been granted `role`."
      },
      "increaseAllowance(address,uint256)": {
        "details": "Atomically increases the allowance granted to `spender` by the caller. This is an alternative to {approve} that can be used as a mitigation for problems described in {IERC20-approve}. Emits an {Approval} event indicating the updated allowance. Requirements: - `spender` cannot be the zero address."
      },
      "name()": {
        "details": "Returns the name of the token."
      },
      "paused()": {
        "details": "Returns true if the contract is paused, and false otherwise."
      },
      "renounceRole(bytes32,address)": {
        "details": "Revokes `role` from the calling account. Roles are often managed via {grantRole} and {revokeRole}: this function's purpose is to provide a mechanism for accounts to lose their privileges if they are compromised (such as when a trusted device is misplaced). If the calling account had been revoked `role`, emits a {RoleRevoked} event. Requirements: - the caller must be `account`. May emit a {RoleRevoked} event."
      },
      "revokeRole(bytes32,address)": {
        "details": "Revokes `role` from `account`. If `account` had been granted `role`, emits a {RoleRevoked} event. Requirements: - the caller must have ``role``'s admin role. May emit a {RoleRevoked} event."
      },
      "supportsInterface(bytes4)": {
        "details": "See {IERC165-supportsInterface}."
      },
      "symbol()": {
        "details": "Returns the symbol of the token, usually a shorter version of the name."
      },
      "totalSupply()": {
        "details": "See {IERC20-totalSupply}."
      },
      "transfer(address,uint256)": {
        "details": "See {IERC20-transfer}. Requirements: - `to` cannot be the zero address. - the caller must have a balance of at least `amount`."
      },
      "transferFrom(address,address,uint256)": {
        "details": "See {IERC20-transferFrom}. Emits an {Approval} event indicating the updated allowance. This is not required by the EIP. See the note at the beginning of {ERC20}. NOTE: Does not update the allowance if the current allowance is the maximum `uint256`. Requirements: - `from` and `to` cannot be the zero address. - `from` must have a balance of at least `amount`. - the caller must have allowance for ``from``'s tokens of at least `amount`."
      }
    },
    "version": 1
  },
  "userdoc": {
    "kind": "user",
    "methods": {},
    "version": 1
  }
}