{
  "contractName": "WFIO",
  "abi": [
    {
      "inputs": [
        {
          "internalType": "uint256",
          "name": "_initialSupply",
          "type": "uint256"
        },
        {
          "internalType": "address[]",
          "name": "newcustodians",
          "type": "address[]"
        }
      ],
      "stateMutability": "nonpayable",
      "type": "constructor"
    },
    {
      "anonymous": false,
      "inputs": [
        {
          "indexed": true,
          "internalType": "address",
          "name": "owner",
          "type": "address"
        },
        {
          "indexed": true,
          "internalType": "address",
          "name": "spender",
          "type": "address"
        },
        {
          "indexed": false,
          "internalType": "uint256",
          "name": "value",
          "type": "uint256"
        }
      ],
      "name": "Approval",
      "type": "event"
    },
    {
      "anonymous": false,
      "inputs": [
        {
          "indexed": false,
          "internalType": "address",
          "name": "account",
          "type": "address"
        }
      ],
      "name": "Paused",
      "type": "event"
    },
    {
      "anonymous": false,
      "inputs": [
        {
          "indexed": true,
          "internalType": "address",
          "name": "from",
          "type": "address"
        },
        {
          "indexed": true,
          "internalType": "address",
          "name": "to",
          "type": "address"
        },
        {
          "indexed": false,
          "internalType": "uint256",
          "name": "value",
          "type": "uint256"
        }
      ],
      "name": "Transfer",
      "type": "event"
    },
    {
      "anonymous": false,
      "inputs": [
        {
          "indexed": false,
          "internalType": "address",
          "name": "account",
          "type": "address"
        }
      ],
      "name": "Unpaused",
      "type": "event"
    },
    {
      "anonymous": false,
      "inputs": [
        {
          "indexed": false,
          "internalType": "address",
          "name": "account",
          "type": "address"
        },
        {
          "indexed": false,
          "internalType": "bytes32",
          "name": "eid",
          "type": "bytes32"
        }
      ],
      "name": "custodian_registered",
      "type": "event"
    },
    {
      "anonymous": false,
      "inputs": [
        {
          "indexed": false,
          "internalType": "address",
          "name": "account",
          "type": "address"
        },
        {
          "indexed": false,
          "internalType": "bytes32",
          "name": "eid",
          "type": "bytes32"
        }
      ],
      "name": "custodian_unregistered",
      "type": "event"
    },
    {
      "anonymous": false,
      "inputs": [
        {
          "indexed": false,
          "internalType": "address",
          "name": "account",
          "type": "address"
        },
        {
          "indexed": false,
          "internalType": "bytes32",
          "name": "eid",
          "type": "bytes32"
        }
      ],
      "name": "oracle_registered",
      "type": "event"
    },
    {
      "anonymous": false,
      "inputs": [
        {
          "indexed": false,
          "internalType": "address",
          "name": "account",
          "type": "address"
        },
        {
          "indexed": false,
          "internalType": "bytes32",
          "name": "eid",
          "type": "bytes32"
        }
      ],
      "name": "oracle_unregistered",
      "type": "event"
    },
    {
      "anonymous": false,
      "inputs": [
        {
          "indexed": false,
          "internalType": "string",
          "name": "fioaddress",
          "type": "string"
        },
        {
          "indexed": false,
          "internalType": "uint256",
          "name": "amount",
          "type": "uint256"
        }
      ],
      "name": "unwrapped",
      "type": "event"
    },
    {
      "anonymous": false,
      "inputs": [
        {
          "indexed": false,
          "internalType": "address",
          "name": "account",
          "type": "address"
        },
        {
          "indexed": false,
          "internalType": "uint256",
          "name": "amount",
          "type": "uint256"
        },
        {
          "indexed": false,
          "internalType": "string",
          "name": "obtid",
          "type": "string"
        }
      ],
      "name": "wrapped",
      "type": "event"
    },
    {
      "inputs": [
        {
          "internalType": "address",
          "name": "owner",
          "type": "address"
        },
        {
          "internalType": "address",
          "name": "spender",
          "type": "address"
        }
      ],
      "name": "allowance",
      "outputs": [
        {
          "internalType": "uint256",
          "name": "",
          "type": "uint256"
        }
      ],
      "stateMutability": "view",
      "type": "function",
      "constant": true
    },
    {
      "inputs": [
        {
          "internalType": "address",
          "name": "spender",
          "type": "address"
        },
        {
          "internalType": "uint256",
          "name": "amount",
          "type": "uint256"
        }
      ],
      "name": "approve",
      "outputs": [
        {
          "internalType": "bool",
          "name": "",
          "type": "bool"
        }
      ],
      "stateMutability": "nonpayable",
      "type": "function"
    },
    {
      "inputs": [
        {
          "internalType": "address",
          "name": "account",
          "type": "address"
        }
      ],
      "name": "balanceOf",
      "outputs": [
        {
          "internalType": "uint256",
          "name": "",
          "type": "uint256"
        }
      ],
      "stateMutability": "view",
      "type": "function",
      "constant": true
    },
    {
      "inputs": [
        {
          "internalType": "uint256",
          "name": "amount",
          "type": "uint256"
        }
      ],
      "name": "burn",
      "outputs": [],
      "stateMutability": "nonpayable",
      "type": "function"
    },
    {
      "inputs": [
        {
          "internalType": "address",
          "name": "account",
          "type": "address"
        },
        {
          "internalType": "uint256",
          "name": "amount",
          "type": "uint256"
        }
      ],
      "name": "burnFrom",
      "outputs": [],
      "stateMutability": "nonpayable",
      "type": "function"
    },
    {
      "inputs": [
        {
          "internalType": "address",
          "name": "spender",
          "type": "address"
        },
        {
          "internalType": "uint256",
          "name": "subtractedValue",
          "type": "uint256"
        }
      ],
      "name": "decreaseAllowance",
      "outputs": [
        {
          "internalType": "bool",
          "name": "",
          "type": "bool"
        }
      ],
      "stateMutability": "nonpayable",
      "type": "function"
    },
    {
      "inputs": [
        {
          "internalType": "address",
          "name": "spender",
          "type": "address"
        },
        {
          "internalType": "uint256",
          "name": "addedValue",
          "type": "uint256"
        }
      ],
      "name": "increaseAllowance",
      "outputs": [
        {
          "internalType": "bool",
          "name": "",
          "type": "bool"
        }
      ],
      "stateMutability": "nonpayable",
      "type": "function"
    },
    {
      "inputs": [],
      "name": "name",
      "outputs": [
        {
          "internalType": "string",
          "name": "",
          "type": "string"
        }
      ],
      "stateMutability": "view",
      "type": "function",
      "constant": true
    },
    {
      "inputs": [],
      "name": "paused",
      "outputs": [
        {
          "internalType": "bool",
          "name": "",
          "type": "bool"
        }
      ],
      "stateMutability": "view",
      "type": "function",
      "constant": true
    },
    {
      "inputs": [],
      "name": "symbol",
      "outputs": [
        {
          "internalType": "string",
          "name": "",
          "type": "string"
        }
      ],
      "stateMutability": "view",
      "type": "function",
      "constant": true
    },
    {
      "inputs": [],
      "name": "totalSupply",
      "outputs": [
        {
          "internalType": "uint256",
          "name": "",
          "type": "uint256"
        }
      ],
      "stateMutability": "view",
      "type": "function",
      "constant": true
    },
    {
      "inputs": [
        {
          "internalType": "address",
          "name": "to",
          "type": "address"
        },
        {
          "internalType": "uint256",
          "name": "amount",
          "type": "uint256"
        }
      ],
      "name": "transfer",
      "outputs": [
        {
          "internalType": "bool",
          "name": "",
          "type": "bool"
        }
      ],
      "stateMutability": "nonpayable",
      "type": "function"
    },
    {
      "inputs": [
        {
          "internalType": "address",
          "name": "from",
          "type": "address"
        },
        {
          "internalType": "address",
          "name": "to",
          "type": "address"
        },
        {
          "internalType": "uint256",
          "name": "amount",
          "type": "uint256"
        }
      ],
      "name": "transferFrom",
      "outputs": [
        {
          "internalType": "bool",
          "name": "",
          "type": "bool"
        }
      ],
      "stateMutability": "nonpayable",
      "type": "function"
    },
    {
      "stateMutability": "payable",
      "type": "receive",
      "payable": true
    },
    {
      "inputs": [],
      "name": "pause",
      "outputs": [],
      "stateMutability": "nonpayable",
      "type": "function"
    },
    {
      "inputs": [],
      "name": "unpause",
      "outputs": [],
      "stateMutability": "nonpayable",
      "type": "function"
    },
    {
      "inputs": [
        {
          "internalType": "address",
          "name": "account",
          "type": "address"
        },
        {
          "internalType": "uint256",
          "name": "amount",
          "type": "uint256"
        },
        {
          "internalType": "string",
          "name": "obtid",
          "type": "string"
        }
      ],
      "name": "wrap",
      "outputs": [],
      "stateMutability": "nonpayable",
      "type": "function"
    },
    {
      "inputs": [
        {
          "internalType": "string",
          "name": "fioaddress",
          "type": "string"
        },
        {
          "internalType": "uint256",
          "name": "amount",
          "type": "uint256"
        }
      ],
      "name": "unwrap",
      "outputs": [],
      "stateMutability": "nonpayable",
      "type": "function"
    },
    {
      "inputs": [
        {
          "internalType": "address",
          "name": "account",
          "type": "address"
        }
      ],
      "name": "getCustodian",
      "outputs": [
        {
          "internalType": "bool",
          "name": "",
          "type": "bool"
        },
        {
          "internalType": "int256",
          "name": "",
          "type": "int256"
        }
      ],
      "stateMutability": "view",
      "type": "function",
      "constant": true
    },
    {
      "inputs": [
        {
          "internalType": "address",
          "name": "account",
          "type": "address"
        }
      ],
      "name": "getOracle",
      "outputs": [
        {
          "internalType": "bool",
          "name": "",
          "type": "bool"
        },
        {
          "internalType": "int256",
          "name": "",
          "type": "int256"
        }
      ],
      "stateMutability": "view",
      "type": "function",
      "constant": true
    },
    {
      "inputs": [],
      "name": "getOracles",
      "outputs": [
        {
          "internalType": "address[]",
          "name": "",
          "type": "address[]"
        }
      ],
      "stateMutability": "view",
      "type": "function",
      "constant": true
    },
    {
      "inputs": [
        {
          "internalType": "string",
          "name": "obtid",
          "type": "string"
        }
      ],
      "name": "getApproval",
      "outputs": [
        {
          "internalType": "int256",
          "name": "",
          "type": "int256"
        },
        {
          "internalType": "address",
          "name": "",
          "type": "address"
        },
        {
          "internalType": "uint256",
          "name": "",
          "type": "uint256"
        }
      ],
      "stateMutability": "view",
      "type": "function",
      "constant": true
    },
    {
      "inputs": [
        {
          "internalType": "address",
          "name": "account",
          "type": "address"
        }
      ],
      "name": "regoracle",
      "outputs": [],
      "stateMutability": "nonpayable",
      "type": "function"
    },
    {
      "inputs": [
        {
          "internalType": "address",
          "name": "account",
          "type": "address"
        }
      ],
      "name": "unregoracle",
      "outputs": [],
      "stateMutability": "nonpayable",
      "type": "function"
    },
    {
      "inputs": [
        {
          "internalType": "address",
          "name": "account",
          "type": "address"
        }
      ],
      "name": "regcust",
      "outputs": [],
      "stateMutability": "nonpayable",
      "type": "function"
    },
    {
      "inputs": [
        {
          "internalType": "address",
          "name": "account",
          "type": "address"
        }
      ],
      "name": "unregcust",
      "outputs": [],
      "stateMutability": "nonpayable",
      "type": "function"
    },
    {
      "inputs": [],
      "name": "decimals",
      "outputs": [
        {
          "internalType": "uint8",
          "name": "",
          "type": "uint8"
        }
      ],
      "stateMutability": "view",
      "type": "function",
      "constant": true
    }
  ],
  "bytecode": "0x60806040523480156200001157600080fd5b506040516200608538038062006085833981810160405281019062000037919062000877565b6040518060400160405280600c81526020017f46494f2050726f746f636f6c00000000000000000000000000000000000000008152506040518060400160405280600481526020017f7746494f000000000000000000000000000000000000000000000000000000008152508160039080519060200190620000bb929190620006f7565b508060049080519060200190620000d4929190620006f7565b5050506000600560006101000a81548160ff021916908315150217905550600a81511462000139576040517f08c379a0000000000000000000000000000000000000000000000000000000008152600401620001309062000b46565b60405180910390fd5b6200014b3383620004d060201b60201c565b33600560016101000a81548173ffffffffffffffffffffffffffffffffffffffff021916908373ffffffffffffffffffffffffffffffffffffffff16021790555060005b600a8160ff161015620004b757600560019054906101000a900473ffffffffffffffffffffffffffffffffffffffff1673ffffffffffffffffffffffffffffffffffffffff16828260ff168151811062000212577f4e487b7100000000000000000000000000000000000000000000000000000000600052603260045260246000fd5b602002602001015173ffffffffffffffffffffffffffffffffffffffff16141562000274576040517f08c379a00000000000000000000000000000000000000000000000000000000081526004016200026b9062000b24565b60405180910390fd5b600e6000838360ff1681518110620002b5577f4e487b7100000000000000000000000000000000000000000000000000000000600052603260045260246000fd5b602002602001015173ffffffffffffffffffffffffffffffffffffffff1673ffffffffffffffffffffffffffffffffffffffff16815260200190815260200160002060000160009054906101000a900460ff16156200034b576040517f08c379a0000000000000000000000000000000000000000000000000000000008152600401620003429062000ae0565b60405180910390fd5b600073ffffffffffffffffffffffffffffffffffffffff16828260ff1681518110620003a0577f4e487b7100000000000000000000000000000000000000000000000000000000600052603260045260246000fd5b602002602001015173ffffffffffffffffffffffffffffffffffffffff16141562000402576040517f08c379a0000000000000000000000000000000000000000000000000000000008152600401620003f99062000b02565b60405180910390fd5b6001600e6000848460ff168151811062000445577f4e487b7100000000000000000000000000000000000000000000000000000000600052603260045260246000fd5b602002602001015173ffffffffffffffffffffffffffffffffffffffff1673ffffffffffffffffffffffffffffffffffffffff16815260200190815260200160002060000160006101000a81548160ff0219169083151502179055508080620004ae9062000d1b565b9150506200018f565b50600a6006819055506000600781905550505062000e0b565b600073ffffffffffffffffffffffffffffffffffffffff168273ffffffffffffffffffffffffffffffffffffffff16141562000543576040517f08c379a00000000000000000000000000000000000000000000000000000000081526004016200053a9062000b68565b60405180910390fd5b62000557600083836200064960201b60201c565b80600260008282546200056b919062000c3d565b92505081905550806000808473ffffffffffffffffffffffffffffffffffffffff1673ffffffffffffffffffffffffffffffffffffffff1681526020019081526020016000206000828254620005c2919062000c3d565b925050819055508173ffffffffffffffffffffffffffffffffffffffff16600073ffffffffffffffffffffffffffffffffffffffff167fddf252ad1be2c89b69c2b068fc378daa952ba7f163c4a11628f55a4df523b3ef8360405162000629919062000bac565b60405180910390a362000645600083836200066660201b60201c565b5050565b620006618383836200066b60201b62002b981760201c565b505050565b505050565b62000683838383620006db60201b62002bf01760201c565b62000693620006e060201b60201c565b15620006d6576040517f08c379a0000000000000000000000000000000000000000000000000000000008152600401620006cd9062000b8a565b60405180910390fd5b505050565b505050565b6000600560009054906101000a900460ff16905090565b828054620007059062000ce5565b90600052602060002090601f01602090048101928262000729576000855562000775565b82601f106200074457805160ff191683800117855562000775565b8280016001018555821562000775579182015b828111156200077457825182559160200191906001019062000757565b5b50905062000784919062000788565b5090565b5b80821115620007a357600081600090555060010162000789565b5090565b6000620007be620007b88462000bfd565b62000bc9565b90508083825260208201905082856020860282011115620007de57600080fd5b60005b85811015620008125781620007f788826200081c565b845260208401935060208301925050600181019050620007e1565b5050509392505050565b6000815190506200082d8162000dd7565b92915050565b600082601f8301126200084557600080fd5b815162000857848260208601620007a7565b91505092915050565b600081519050620008718162000df1565b92915050565b600080604083850312156200088b57600080fd5b60006200089b8582860162000860565b925050602083015167ffffffffffffffff811115620008b957600080fd5b620008c78582860162000833565b9150509250929050565b6000620008e060198362000c2c565b91507f637573746f6469616e20616c726561647920656e7465726564000000000000006000830152602082019050919050565b600062000922600f8362000c2c565b91507f496e76616c6964206163636f756e7400000000000000000000000000000000006000830152602082019050919050565b60006200096460228362000c2c565b91507f436f6e7472616374206f776e65722063616e6e6f7420626520637573746f646960008301527f616e0000000000000000000000000000000000000000000000000000000000006020830152604082019050919050565b6000620009cc60288362000c2c565b91507f7746494f2063616e6e6f74206465706c6f7920776974686f757420313020637560008301527f73746f6469616e730000000000000000000000000000000000000000000000006020830152604082019050919050565b600062000a34601f8362000c2c565b91507f45524332303a206d696e7420746f20746865207a65726f2061646472657373006000830152602082019050919050565b600062000a76602a8362000c2c565b91507f45524332305061757361626c653a20746f6b656e207472616e7366657220776860008301527f696c6520706175736564000000000000000000000000000000000000000000006020830152604082019050919050565b62000ada8162000cce565b82525050565b6000602082019050818103600083015262000afb81620008d1565b9050919050565b6000602082019050818103600083015262000b1d8162000913565b9050919050565b6000602082019050818103600083015262000b3f8162000955565b9050919050565b6000602082019050818103600083015262000b6181620009bd565b9050919050565b6000602082019050818103600083015262000b838162000a25565b9050919050565b6000602082019050818103600083015262000ba58162000a67565b9050919050565b600060208201905062000bc3600083018462000acf565b92915050565b6000604051905081810181811067ffffffffffffffff8211171562000bf35762000bf262000da8565b5b8060405250919050565b600067ffffffffffffffff82111562000c1b5762000c1a62000da8565b5b602082029050602081019050919050565b600082825260208201905092915050565b600062000c4a8262000cce565b915062000c578362000cce565b9250827fffffffffffffffffffffffffffffffffffffffffffffffffffffffffffffffff0382111562000c8f5762000c8e62000d4a565b5b828201905092915050565b600062000ca78262000cae565b9050919050565b600073ffffffffffffffffffffffffffffffffffffffff82169050919050565b6000819050919050565b600060ff82169050919050565b6000600282049050600182168062000cfe57607f821691505b6020821081141562000d155762000d1462000d79565b5b50919050565b600062000d288262000cd8565b915060ff82141562000d3f5762000d3e62000d4a565b5b600182019050919050565b7f4e487b7100000000000000000000000000000000000000000000000000000000600052601160045260246000fd5b7f4e487b7100000000000000000000000000000000000000000000000000000000600052602260045260246000fd5b7f4e487b7100000000000000000000000000000000000000000000000000000000600052604160045260246000fd5b62000de28162000c9a565b811462000dee57600080fd5b50565b62000dfc8162000cce565b811462000e0857600080fd5b50565b61526a8062000e1b6000396000f3fe6080604052600436106101855760003560e01c806370a08231116100d1578063a9059cbb1161008a578063da4baecb11610064578063da4baecb146105ba578063dd62ed3e146105e3578063e5690a9914610620578063ff3e34a5146106495761018f565b8063a9059cbb14610516578063c0bcfe9c14610553578063cb5aa7e91461057c5761018f565b806370a082311461040857806379cc6790146104455780638456cb591461046e5780638c70c3bd1461048557806395d89b41146104ae578063a457c2d7146104d95761018f565b8063313ce5671161013e57806340884c521161011857806340884c521461036057806342966c681461038b5780634fdcaca6146103b45780635c975abb146103dd5761018f565b8063313ce567146102e1578063395093511461030c5780633f4ba83a146103495761018f565b806306fdde0314610194578063095ea7b3146101bf57806310d3d22e146101fc57806318160ddd1461023a57806323b872dd146102655780632998864a146102a25761018f565b3661018f57600080fd5b600080fd5b3480156101a057600080fd5b506101a9610672565b6040516101b69190614684565b60405180910390f35b3480156101cb57600080fd5b506101e660048036038101906101e191906136c0565b610704565b6040516101f39190614609565b60405180910390f35b34801561020857600080fd5b50610223600480360381019061021e919061360c565b610727565b604051610231929190614624565b60405180910390f35b34801561024657600080fd5b5061024f6107f6565b60405161025c9190614c06565b60405180910390f35b34801561027157600080fd5b5061028c60048036038101906102879190613671565b610800565b6040516102999190614609565b60405180910390f35b3480156102ae57600080fd5b506102c960048036038101906102c49190613763565b61082f565b6040516102d89392919061464d565b60405180910390f35b3480156102ed57600080fd5b506102f6610915565b6040516103039190614c21565b60405180910390f35b34801561031857600080fd5b50610333600480360381019061032e91906136c0565b61091e565b6040516103409190614609565b60405180910390f35b34801561035557600080fd5b5061035e610955565b005b34801561036c57600080fd5b506103756109f6565b60405161038291906145e7565b60405180910390f35b34801561039757600080fd5b506103b260048036038101906103ad91906137f8565b610a84565b005b3480156103c057600080fd5b506103db60048036038101906103d6919061360c565b610a98565b005b3480156103e957600080fd5b506103f26111e6565b6040516103ff9190614609565b60405180910390f35b34801561041457600080fd5b5061042f600480360381019061042a919061360c565b6111fd565b60405161043c9190614c06565b60405180910390f35b34801561045157600080fd5b5061046c600480360381019061046791906136c0565b611245565b005b34801561047a57600080fd5b50610483611265565b005b34801561049157600080fd5b506104ac60048036038101906104a791906137a4565b611306565b005b3480156104ba57600080fd5b506104c36113a7565b6040516104d09190614684565b60405180910390f35b3480156104e557600080fd5b5061050060048036038101906104fb91906136c0565b611439565b60405161050d9190614609565b60405180910390f35b34801561052257600080fd5b5061053d600480360381019061053891906136c0565b6114b0565b60405161054a9190614609565b60405180910390f35b34801561055f57600080fd5b5061057a6004803603810190610575919061360c565b6114d3565b005b34801561058857600080fd5b506105a3600480360381019061059e919061360c565b6119b9565b6040516105b1929190614624565b60405180910390f35b3480156105c657600080fd5b506105e160048036038101906105dc91906136fc565b611a88565b005b3480156105ef57600080fd5b5061060a60048036038101906106059190613635565b6120b7565b6040516106179190614c06565b60405180910390f35b34801561062c57600080fd5b506106476004803603810190610642919061360c565b61213e565b005b34801561065557600080fd5b50610670600480360381019061066b919061360c565b612687565b005b60606003805461068190615093565b80601f01602080910402602001604051908101604052809291908181526020018280546106ad90615093565b80156106fa5780601f106106cf576101008083540402835291602001916106fa565b820191906000526020600020905b8154815290600101906020018083116106dd57829003601f168201915b5050505050905090565b60008061070f612bf5565b905061071c818585612bfd565b600191505092915050565b600080600073ffffffffffffffffffffffffffffffffffffffff168373ffffffffffffffffffffffffffffffffffffffff16141561079a576040517f08c379a000000000000000000000000000000000000000000000000000000000815260040161079190614736565b60405180910390fd5b600c60008473ffffffffffffffffffffffffffffffffffffffff1673ffffffffffffffffffffffffffffffffffffffff16815260200190815260200160002060000160009054906101000a900460ff1660075491509150915091565b6000600254905090565b60008061080b612bf5565b9050610818858285612dc8565b610823858585612e54565b60019150509392505050565b600080600080845111610877576040517f08c379a000000000000000000000000000000000000000000000000000000000815260040161086e90614b46565b60405180910390fd5b60008460405160200161088a9190614684565b604051602081830303815290604052805190602001209050600f600082815260200190815260200160002060010154600f600083815260200190815260200160002060020160009054906101000a900473ffffffffffffffffffffffffffffffffffffffff16600f600084815260200190815260200160002060030154935093509350509193909250565b60006009905090565b600080610929612bf5565b905061094a81858561093b85896120b7565b6109459190614d86565b612bfd565b600191505092915050565b600e60003373ffffffffffffffffffffffffffffffffffffffff1673ffffffffffffffffffffffffffffffffffffffff16815260200190815260200160002060000160009054906101000a900460ff166109e4576040517f08c379a00000000000000000000000000000000000000000000000000000000081526004016109db90614916565b60405180910390fd5b6109ec6130d5565b6109f461311e565b565b6060600d805480602002602001604051908101604052809291908181526020018280548015610a7a57602002820191906000526020600020905b8160009054906101000a900473ffffffffffffffffffffffffffffffffffffffff1673ffffffffffffffffffffffffffffffffffffffff1681526020019060010190808311610a30575b5050505050905090565b610a95610a8f612bf5565b82613181565b50565b600e60003373ffffffffffffffffffffffffffffffffffffffff1673ffffffffffffffffffffffffffffffffffffffff16815260200190815260200160002060000160009054906101000a900460ff16610b27576040517f08c379a0000000000000000000000000000000000000000000000000000000008152600401610b1e90614916565b60405180910390fd5b600073ffffffffffffffffffffffffffffffffffffffff168173ffffffffffffffffffffffffffffffffffffffff161415610b97576040517f08c379a0000000000000000000000000000000000000000000000000000000008152600401610b8e90614736565b60405180910390fd5b600060075413610bdc576040517f08c379a0000000000000000000000000000000000000000000000000000000008152600401610bd390614816565b60405180910390fd5b600081600854604051602001610bf3929190614aca565b604051602081830303815290604052805190602001209050600f600082815260200190815260200160002060000160003373ffffffffffffffffffffffffffffffffffffffff1673ffffffffffffffffffffffffffffffffffffffff16815260200190815260200160002060009054906101000a900460ff1615610cac576040517f08c379a0000000000000000000000000000000000000000000000000000000008152600401610ca390614be6565b60405180910390fd5b600c60008373ffffffffffffffffffffffffffffffffffffffff1673ffffffffffffffffffffffffffffffffffffffff16815260200190815260200160002060000160009054906101000a900460ff16610d3b576040517f08c379a0000000000000000000000000000000000000000000000000000000008152600401610d32906148d6565b60405180910390fd5b6000600160036002600654610d509190614e46565b610d5a9190614ddc565b610d649190614cf2565b905080600f6000848152602001908152602001600020600101541215610e1d57600f60008381526020019081526020016000206001016000815480929190610dab906150c5565b91905055506001600f600084815260200190815260200160002060000160003373ffffffffffffffffffffffffffffffffffffffff1673ffffffffffffffffffffffffffffffffffffffff16815260200190815260200160002060006101000a81548160ff0219169083151502179055505b80600f60008481526020019081526020016000206001015414156111e1576000600c60008573ffffffffffffffffffffffffffffffffffffffff1673ffffffffffffffffffffffffffffffffffffffff16815260200190815260200160002060000160006101000a81548160ff021916908315150217905550600c60008473ffffffffffffffffffffffffffffffffffffffff1673ffffffffffffffffffffffffffffffffffffffff168152602001908152602001600020600080820160006101000a81549060ff0219169055505060076000815480929190610eff9061504a565b9190505550600f6000838152602001908152602001600020600060018201600090556002820160006101000a81549073ffffffffffffffffffffffffffffffffffffffff02191690556003820160009055505060086000815480929190610f65906150c5565b919050555060005b6001600d80549050610f7f9190614f5d565b8161ffff16116111a6578373ffffffffffffffffffffffffffffffffffffffff16600d8261ffff1681548110610fde577f4e487b7100000000000000000000000000000000000000000000000000000000600052603260045260246000fd5b9060005260206000200160009054906101000a900473ffffffffffffffffffffffffffffffffffffffff1673ffffffffffffffffffffffffffffffffffffffff16141561119357600d6001600d805490506110399190614f5d565b81548110611070577f4e487b7100000000000000000000000000000000000000000000000000000000600052603260045260246000fd5b9060005260206000200160009054906101000a900473ffffffffffffffffffffffffffffffffffffffff16600d8261ffff16815481106110d9577f4e487b7100000000000000000000000000000000000000000000000000000000600052603260045260246000fd5b9060005260206000200160006101000a81548173ffffffffffffffffffffffffffffffffffffffff021916908373ffffffffffffffffffffffffffffffffffffffff160217905550600d805480611159577f4e487b7100000000000000000000000000000000000000000000000000000000600052603160045260246000fd5b6001900381819060005260206000200160006101000a81549073ffffffffffffffffffffffffffffffffffffffff021916905590556111a6565b808061119e9061510e565b915050610f6d565b507fe4d21301551b3d87dc269fc8b9d5a5c1432831c3c321ef19570b8a93a10cb52283836040516111d8929190614580565b60405180910390a15b505050565b6000600560009054906101000a900460ff16905090565b60008060008373ffffffffffffffffffffffffffffffffffffffff1673ffffffffffffffffffffffffffffffffffffffff168152602001908152602001600020549050919050565b61125782611251612bf5565b83612dc8565b6112618282613181565b5050565b600e60003373ffffffffffffffffffffffffffffffffffffffff1673ffffffffffffffffffffffffffffffffffffffff16815260200190815260200160002060000160009054906101000a900460ff166112f4576040517f08c379a00000000000000000000000000000000000000000000000000000000081526004016112eb90614916565b60405180910390fd5b6112fc613358565b6113046133a2565b565b61130e613358565b6003825111801561132157506040825111155b611360576040517f08c379a0000000000000000000000000000000000000000000000000000000008152600401611357906149b2565b60405180910390fd5b61136a3382613181565b7fcbc81eff77955b99685533d29441743baaced5a53ed539d634490e5380a8dcf0828260405161139b9291906146a6565b60405180910390a15050565b6060600480546113b690615093565b80601f01602080910402602001604051908101604052809291908181526020018280546113e290615093565b801561142f5780601f106114045761010080835404028352916020019161142f565b820191906000526020600020905b81548152906001019060200180831161141257829003601f168201915b5050505050905090565b600080611444612bf5565b9050600061145282866120b7565b905083811015611497576040517f08c379a000000000000000000000000000000000000000000000000000000000815260040161148e90614b66565b60405180910390fd5b6114a48286868403612bfd565b60019250505092915050565b6000806114bb612bf5565b90506114c8818585612e54565b600191505092915050565b600e60003373ffffffffffffffffffffffffffffffffffffffff1673ffffffffffffffffffffffffffffffffffffffff16815260200190815260200160002060000160009054906101000a900460ff16611562576040517f08c379a000000000000000000000000000000000000000000000000000000000815260040161155990614916565b60405180910390fd5b600073ffffffffffffffffffffffffffffffffffffffff168173ffffffffffffffffffffffffffffffffffffffff1614156115d2576040517f08c379a00000000000000000000000000000000000000000000000000000000081526004016115c990614736565b60405180910390fd5b3373ffffffffffffffffffffffffffffffffffffffff168173ffffffffffffffffffffffffffffffffffffffff161415611641576040517f08c379a0000000000000000000000000000000000000000000000000000000008152600401611638906148b6565b60405180910390fd5b600081600a54604051602001611658929190614a8e565b604051602081830303815290604052805190602001209050600e60008373ffffffffffffffffffffffffffffffffffffffff1673ffffffffffffffffffffffffffffffffffffffff16815260200190815260200160002060000160009054906101000a900460ff1615611700576040517f08c379a00000000000000000000000000000000000000000000000000000000081526004016116f790614b86565b60405180910390fd5b600f600082815260200190815260200160002060000160003373ffffffffffffffffffffffffffffffffffffffff1673ffffffffffffffffffffffffffffffffffffffff16815260200190815260200160002060009054906101000a900460ff16156117a1576040517f08c379a000000000000000000000000000000000000000000000000000000000815260040161179890614856565b60405180910390fd5b60006001600360026006546117b69190614e46565b6117c09190614ddc565b6117ca9190614cf2565b905080600f600084815260200190815260200160002060010154121561188357600f60008381526020019081526020016000206001016000815480929190611811906150c5565b91905055506001600f600084815260200190815260200160002060000160003373ffffffffffffffffffffffffffffffffffffffff1673ffffffffffffffffffffffffffffffffffffffff16815260200190815260200160002060006101000a81548160ff0219169083151502179055505b80600f60008481526020019081526020016000206001015414156119b4576001600e60008573ffffffffffffffffffffffffffffffffffffffff1673ffffffffffffffffffffffffffffffffffffffff16815260200190815260200160002060000160006101000a81548160ff0219169083151502179055506006600081548092919061190f906150c5565b9190505550600f6000838152602001908152602001600020600060018201600090556002820160006101000a81549073ffffffffffffffffffffffffffffffffffffffff021916905560038201600090555050600a6000815480929190611975906150c5565b91905055507f4f4b5dcea44dd9a0d4582de1f0b930ffdd296bd645df66b73ff1795f43e7dc1183836040516119ab929190614580565b60405180910390a15b505050565b600080600073ffffffffffffffffffffffffffffffffffffffff168373ffffffffffffffffffffffffffffffffffffffff161415611a2c576040517f08c379a0000000000000000000000000000000000000000000000000000000008152600401611a2390614736565b60405180910390fd5b600e60008473ffffffffffffffffffffffffffffffffffffffff1673ffffffffffffffffffffffffffffffffffffffff16815260200190815260200160002060000160009054906101000a900460ff1660065491509150915091565b600c60003373ffffffffffffffffffffffffffffffffffffffff1673ffffffffffffffffffffffffffffffffffffffff16815260200190815260200160002060000160009054906101000a900460ff16611b17576040517f08c379a0000000000000000000000000000000000000000000000000000000008152600401611b0e90614876565b60405180910390fd5b611b1f613358565b662386f26fc100008210611b3257600080fd5b6000815111611b76576040517f08c379a0000000000000000000000000000000000000000000000000000000008152600401611b6d90614b46565b60405180910390fd5b600073ffffffffffffffffffffffffffffffffffffffff168373ffffffffffffffffffffffffffffffffffffffff161415611be6576040517f08c379a0000000000000000000000000000000000000000000000000000000008152600401611bdd90614936565b60405180910390fd5b60036007541215611c2c576040517f08c379a0000000000000000000000000000000000000000000000000000000008152600401611c2390614836565b60405180910390fd5b600081604051602001611c3f9190614684565b604051602081830303815290604052805190602001209050600754600f6000838152602001908152602001600020600101541215611db157600f600082815260200190815260200160002060000160003373ffffffffffffffffffffffffffffffffffffffff1673ffffffffffffffffffffffffffffffffffffffff16815260200190815260200160002060009054906101000a900460ff1615611d18576040517f08c379a0000000000000000000000000000000000000000000000000000000008152600401611d0f90614776565b60405180910390fd5b600f60008281526020019081526020016000206001016000815480929190611d3f906150c5565b91905055506001600f600083815260200190815260200160002060000160003373ffffffffffffffffffffffffffffffffffffffff1673ffffffffffffffffffffffffffffffffffffffff16815260200190815260200160002060006101000a81548160ff0219169083151502179055505b6001600f6000838152602001908152602001600020600101541415611e415783600f600083815260200190815260200160002060020160006101000a81548173ffffffffffffffffffffffffffffffffffffffff021916908373ffffffffffffffffffffffffffffffffffffffff16021790555082600f6000838152602001908152602001600020600301819055505b6001600f6000838152602001908152602001600020600101541315611f5d578373ffffffffffffffffffffffffffffffffffffffff16600f600083815260200190815260200160002060020160009054906101000a900473ffffffffffffffffffffffffffffffffffffffff1673ffffffffffffffffffffffffffffffffffffffff1614611f04576040517f08c379a0000000000000000000000000000000000000000000000000000000008152600401611efb90614956565b60405180910390fd5b82600f60008381526020019081526020016000206003015414611f5c576040517f08c379a0000000000000000000000000000000000000000000000000000000008152600401611f5390614a6e565b60405180910390fd5b5b600754600f60008381526020019081526020016000206001015414156120b157600f600082815260200190815260200160002060000160003373ffffffffffffffffffffffffffffffffffffffff1673ffffffffffffffffffffffffffffffffffffffff16815260200190815260200160002060009054906101000a900460ff1661201d576040517f08c379a0000000000000000000000000000000000000000000000000000000008152600401612014906148f6565b60405180910390fd5b6120278484613405565b7fbfb8a2f9b4d8e8ed83a83aedac91756186665fbf1f57e39619d757180619bf9884848460405161205a939291906145a9565b60405180910390a1600f6000828152602001908152602001600020600060018201600090556002820160006101000a81549073ffffffffffffffffffffffffffffffffffffffff0219169055600382016000905550505b50505050565b6000600160008473ffffffffffffffffffffffffffffffffffffffff1673ffffffffffffffffffffffffffffffffffffffff16815260200190815260200160002060008373ffffffffffffffffffffffffffffffffffffffff1673ffffffffffffffffffffffffffffffffffffffff16815260200190815260200160002054905092915050565b600e60003373ffffffffffffffffffffffffffffffffffffffff1673ffffffffffffffffffffffffffffffffffffffff16815260200190815260200160002060000160009054906101000a900460ff166121cd576040517f08c379a00000000000000000000000000000000000000000000000000000000081526004016121c490614916565b60405180910390fd5b600073ffffffffffffffffffffffffffffffffffffffff168173ffffffffffffffffffffffffffffffffffffffff16141561223d576040517f08c379a000000000000000000000000000000000000000000000000000000000815260040161223490614736565b60405180910390fd5b3373ffffffffffffffffffffffffffffffffffffffff168173ffffffffffffffffffffffffffffffffffffffff1614156122ac576040517f08c379a00000000000000000000000000000000000000000000000000000000081526004016122a3906148b6565b60405180910390fd5b600c60008273ffffffffffffffffffffffffffffffffffffffff1673ffffffffffffffffffffffffffffffffffffffff16815260200190815260200160002060000160009054906101000a900460ff161561233c576040517f08c379a0000000000000000000000000000000000000000000000000000000008152600401612333906147b6565b60405180910390fd5b6000816009546040516020016123539291906149d2565b604051602081830303815290604052805190602001209050600f600082815260200190815260200160002060000160003373ffffffffffffffffffffffffffffffffffffffff1673ffffffffffffffffffffffffffffffffffffffff16815260200190815260200160002060009054906101000a900460ff161561240c576040517f08c379a000000000000000000000000000000000000000000000000000000000815260040161240390614856565b60405180910390fd5b60006001600360026006546124219190614e46565b61242b9190614ddc565b6124359190614cf2565b905080600f60008481526020019081526020016000206001015412156124ee57600f6000838152602001908152602001600020600101600081548092919061247c906150c5565b91905055506001600f600084815260200190815260200160002060000160003373ffffffffffffffffffffffffffffffffffffffff1673ffffffffffffffffffffffffffffffffffffffff16815260200190815260200160002060006101000a81548160ff0219169083151502179055505b80600f6000848152602001908152602001600020600101541415612682576001600c60008573ffffffffffffffffffffffffffffffffffffffff1673ffffffffffffffffffffffffffffffffffffffff16815260200190815260200160002060000160006101000a81548160ff021916908315150217905550600d839080600181540180825580915050600190039060005260206000200160009091909190916101000a81548173ffffffffffffffffffffffffffffffffffffffff021916908373ffffffffffffffffffffffffffffffffffffffff160217905550600760008154809291906125dd906150c5565b9190505550600f6000838152602001908152602001600020600060018201600090556002820160006101000a81549073ffffffffffffffffffffffffffffffffffffffff02191690556003820160009055505060096000815480929190612643906150c5565b91905055507ffde1904d2f36e8247a68b76a38b2dc6908f769438b6bb8f173ee39a2c01f2b588383604051612679929190614580565b60405180910390a15b505050565b600e60003373ffffffffffffffffffffffffffffffffffffffff1673ffffffffffffffffffffffffffffffffffffffff16815260200190815260200160002060000160009054906101000a900460ff16612716576040517f08c379a000000000000000000000000000000000000000000000000000000000815260040161270d90614916565b60405180910390fd5b600073ffffffffffffffffffffffffffffffffffffffff168173ffffffffffffffffffffffffffffffffffffffff161415612786576040517f08c379a000000000000000000000000000000000000000000000000000000000815260040161277d90614736565b60405180910390fd5b600e60008273ffffffffffffffffffffffffffffffffffffffff1673ffffffffffffffffffffffffffffffffffffffff16815260200190815260200160002060000160009054906101000a900460ff16612815576040517f08c379a000000000000000000000000000000000000000000000000000000000815260040161280c90614b26565b60405180910390fd5b60076006541361285a576040517f08c379a0000000000000000000000000000000000000000000000000000000008152600401612851906146d6565b60405180910390fd5b600081600b54604051602001612871929190614976565b604051602081830303815290604052805190602001209050600f600082815260200190815260200160002060000160003373ffffffffffffffffffffffffffffffffffffffff1673ffffffffffffffffffffffffffffffffffffffff16815260200190815260200160002060009054906101000a900460ff161561292a576040517f08c379a000000000000000000000000000000000000000000000000000000000815260040161292190614a4e565b60405180910390fd5b600060016003600260065461293f9190614e46565b6129499190614ddc565b6129539190614cf2565b905080600f6000848152602001908152602001600020600101541215612a0c57600f6000838152602001908152602001600020600101600081548092919061299a906150c5565b91905055506001600f600084815260200190815260200160002060000160003373ffffffffffffffffffffffffffffffffffffffff1673ffffffffffffffffffffffffffffffffffffffff16815260200190815260200160002060006101000a81548160ff0219169083151502179055505b80600f6000848152602001908152602001600020600101541415612b93576000600e60008573ffffffffffffffffffffffffffffffffffffffff1673ffffffffffffffffffffffffffffffffffffffff16815260200190815260200160002060000160006101000a81548160ff021916908315150217905550600e60008473ffffffffffffffffffffffffffffffffffffffff1673ffffffffffffffffffffffffffffffffffffffff168152602001908152602001600020600080820160006101000a81549060ff0219169055505060066000815480929190612aee9061504a565b9190505550600f6000838152602001908152602001600020600060018201600090556002820160006101000a81549073ffffffffffffffffffffffffffffffffffffffff021916905560038201600090555050600b6000815480929190612b54906150c5565b91905055507f0cf142c25ce5b399a7953be52d40c8596def04c010697715ab9c72f4962d1a2d8383604051612b8a929190614580565b60405180910390a15b505050565b612ba3838383612bf0565b612bab6111e6565b15612beb576040517f08c379a0000000000000000000000000000000000000000000000000000000008152600401612be290614bc6565b60405180910390fd5b505050565b505050565b600033905090565b600073ffffffffffffffffffffffffffffffffffffffff168373ffffffffffffffffffffffffffffffffffffffff161415612c6d576040517f08c379a0000000000000000000000000000000000000000000000000000000008152600401612c6490614b06565b60405180910390fd5b600073ffffffffffffffffffffffffffffffffffffffff168273ffffffffffffffffffffffffffffffffffffffff161415612cdd576040517f08c379a0000000000000000000000000000000000000000000000000000000008152600401612cd490614796565b60405180910390fd5b80600160008573ffffffffffffffffffffffffffffffffffffffff1673ffffffffffffffffffffffffffffffffffffffff16815260200190815260200160002060008473ffffffffffffffffffffffffffffffffffffffff1673ffffffffffffffffffffffffffffffffffffffff168152602001908152602001600020819055508173ffffffffffffffffffffffffffffffffffffffff168373ffffffffffffffffffffffffffffffffffffffff167f8c5be1e5ebec7d5bd14f71427d1e84f3dd0314c0f7b2291e5b200ac8c7c3b92583604051612dbb9190614c06565b60405180910390a3505050565b6000612dd484846120b7565b90507fffffffffffffffffffffffffffffffffffffffffffffffffffffffffffffffff8114612e4e5781811015612e40576040517f08c379a0000000000000000000000000000000000000000000000000000000008152600401612e37906147d6565b60405180910390fd5b612e4d8484848403612bfd565b5b50505050565b600073ffffffffffffffffffffffffffffffffffffffff168373ffffffffffffffffffffffffffffffffffffffff161415612ec4576040517f08c379a0000000000000000000000000000000000000000000000000000000008152600401612ebb90614a2e565b60405180910390fd5b600073ffffffffffffffffffffffffffffffffffffffff168273ffffffffffffffffffffffffffffffffffffffff161415612f34576040517f08c379a0000000000000000000000000000000000000000000000000000000008152600401612f2b906146f6565b60405180910390fd5b612f3f838383613565565b60008060008573ffffffffffffffffffffffffffffffffffffffff1673ffffffffffffffffffffffffffffffffffffffff16815260200190815260200160002054905081811015612fc5576040517f08c379a0000000000000000000000000000000000000000000000000000000008152600401612fbc906147f6565b60405180910390fd5b8181036000808673ffffffffffffffffffffffffffffffffffffffff1673ffffffffffffffffffffffffffffffffffffffff16815260200190815260200160002081905550816000808573ffffffffffffffffffffffffffffffffffffffff1673ffffffffffffffffffffffffffffffffffffffff16815260200190815260200160002060008282546130589190614d86565b925050819055508273ffffffffffffffffffffffffffffffffffffffff168473ffffffffffffffffffffffffffffffffffffffff167fddf252ad1be2c89b69c2b068fc378daa952ba7f163c4a11628f55a4df523b3ef846040516130bc9190614c06565b60405180910390a36130cf848484613575565b50505050565b6130dd6111e6565b61311c576040517f08c379a000000000000000000000000000000000000000000000000000000000815260040161311390614716565b60405180910390fd5b565b6131266130d5565b6000600560006101000a81548160ff0219169083151502179055507f5db9ee0a495bf2e6ff9c91a7834c1ba4fdd244a5e8aa4e537bd38aeae4b073aa61316a612bf5565b6040516131779190614565565b60405180910390a1565b600073ffffffffffffffffffffffffffffffffffffffff168273ffffffffffffffffffffffffffffffffffffffff1614156131f1576040517f08c379a00000000000000000000000000000000000000000000000000000000081526004016131e890614a0e565b60405180910390fd5b6131fd82600083613565565b60008060008473ffffffffffffffffffffffffffffffffffffffff1673ffffffffffffffffffffffffffffffffffffffff16815260200190815260200160002054905081811015613283576040517f08c379a000000000000000000000000000000000000000000000000000000000815260040161327a90614756565b60405180910390fd5b8181036000808573ffffffffffffffffffffffffffffffffffffffff1673ffffffffffffffffffffffffffffffffffffffff1681526020019081526020016000208190555081600260008282546132da9190614f5d565b92505081905550600073ffffffffffffffffffffffffffffffffffffffff168373ffffffffffffffffffffffffffffffffffffffff167fddf252ad1be2c89b69c2b068fc378daa952ba7f163c4a11628f55a4df523b3ef8460405161333f9190614c06565b60405180910390a361335383600084613575565b505050565b6133606111e6565b156133a0576040517f08c379a000000000000000000000000000000000000000000000000000000000815260040161339790614896565b60405180910390fd5b565b6133aa613358565b6001600560006101000a81548160ff0219169083151502179055507f62e78cea01bee320cd4e420270b5ea74000d11b0c9f74754ebdbfc544b05a2586133ee612bf5565b6040516133fb9190614565565b60405180910390a1565b600073ffffffffffffffffffffffffffffffffffffffff168273ffffffffffffffffffffffffffffffffffffffff161415613475576040517f08c379a000000000000000000000000000000000000000000000000000000000815260040161346c90614ba6565b60405180910390fd5b61348160008383613565565b80600260008282546134939190614d86565b92505081905550806000808473ffffffffffffffffffffffffffffffffffffffff1673ffffffffffffffffffffffffffffffffffffffff16815260200190815260200160002060008282546134e89190614d86565b925050819055508173ffffffffffffffffffffffffffffffffffffffff16600073ffffffffffffffffffffffffffffffffffffffff167fddf252ad1be2c89b69c2b068fc378daa952ba7f163c4a11628f55a4df523b3ef8360405161354d9190614c06565b60405180910390a361356160008383613575565b5050565b613570838383612b98565b505050565b505050565b600061358d61358884614c6d565b614c3c565b9050828152602081018484840111156135a557600080fd5b6135b0848285615008565b509392505050565b6000813590506135c781615206565b92915050565b600082601f8301126135de57600080fd5b81356135ee84826020860161357a565b91505092915050565b6000813590506136068161521d565b92915050565b60006020828403121561361e57600080fd5b600061362c848285016135b8565b91505092915050565b6000806040838503121561364857600080fd5b6000613656858286016135b8565b9250506020613667858286016135b8565b9150509250929050565b60008060006060848603121561368657600080fd5b6000613694868287016135b8565b93505060206136a5868287016135b8565b92505060406136b6868287016135f7565b9150509250925092565b600080604083850312156136d357600080fd5b60006136e1858286016135b8565b92505060206136f2858286016135f7565b9150509250929050565b60008060006060848603121561371157600080fd5b600061371f868287016135b8565b9350506020613730868287016135f7565b925050604084013567ffffffffffffffff81111561374d57600080fd5b613759868287016135cd565b9150509250925092565b60006020828403121561377557600080fd5b600082013567ffffffffffffffff81111561378f57600080fd5b61379b848285016135cd565b91505092915050565b600080604083850312156137b757600080fd5b600083013567ffffffffffffffff8111156137d157600080fd5b6137dd858286016135cd565b92505060206137ee858286016135f7565b9150509250929050565b60006020828403121561380a57600080fd5b6000613818848285016135f7565b91505092915050565b600061382d8383613839565b60208301905092915050565b61384281614f91565b82525050565b61385181614f91565b82525050565b600061386282614cad565b61386c8185614cd0565b935061387783614c9d565b8060005b838110156138a857815161388f8882613821565b975061389a83614cc3565b92505060018101905061387b565b5085935050505092915050565b6138be81614fa3565b82525050565b6138cd81614faf565b82525050565b6138dc81614fb9565b82525050565b60006138ed82614cb8565b6138f78185614ce1565b9350613907818560208601615017565b613910816151f5565b840191505092915050565b6000613928601983614ce1565b91507f4d75737420636f6e7461696e203720637573746f6469616e73000000000000006000830152602082019050919050565b6000613968602383614ce1565b91507f45524332303a207472616e7366657220746f20746865207a65726f206164647260008301527f65737300000000000000000000000000000000000000000000000000000000006020830152604082019050919050565b60006139ce601483614ce1565b91507f5061757361626c653a206e6f74207061757365640000000000000000000000006000830152602082019050919050565b6000613a0e600f83614ce1565b91507f496e76616c6964206164647265737300000000000000000000000000000000006000830152602082019050919050565b6000613a4e602283614ce1565b91507f45524332303a206275726e20616d6f756e7420657863656564732062616c616e60008301527f63650000000000000000000000000000000000000000000000000000000000006020830152604082019050919050565b6000613ab4602683614ce1565b91507f6f7261636c652068617320616c726561647920617070726f766564207468697360008301527f206f6274696400000000000000000000000000000000000000000000000000006020830152604082019050919050565b6000613b1a602283614ce1565b91507f45524332303a20617070726f766520746f20746865207a65726f20616464726560008301527f73730000000000000000000000000000000000000000000000000000000000006020830152604082019050919050565b6000613b80601c83614ce1565b91507f4f7261636c6520697320616c72656164792072656769737465726564000000006000830152602082019050919050565b6000613bc0601d83614ce1565b91507f45524332303a20696e73756666696369656e7420616c6c6f77616e63650000006000830152602082019050919050565b6000613c00602683614ce1565b91507f45524332303a207472616e7366657220616d6f756e742065786365656473206260008301527f616c616e636500000000000000000000000000000000000000000000000000006020830152604082019050919050565b6000613c66601483614ce1565b91507f4e6f206f7261636c65732072656d61696e696e670000000000000000000000006000830152602082019050919050565b6000613ca6601c83614ce1565b91507f4f7261636c6573206d7573742062652033206f722067726561746572000000006000830152602082019050919050565b6000613ce6602e83614ce1565b91507f6d73672e73656e6465722068617320616c726561647920617070726f7665642060008301527f7468697320637573746f6469616e0000000000000000000000000000000000006020830152604082019050919050565b6000613d4c602a83614ce1565b91507f4f6e6c792061207746494f206f7261636c65206d61792063616c6c207468697360008301527f2066756e6374696f6e2e000000000000000000000000000000000000000000006020830152604082019050919050565b6000613db2601083614ce1565b91507f5061757361626c653a20706175736564000000000000000000000000000000006000830152602082019050919050565b6000613df2601483614ce1565b91507f43616e6e6f742072656769737465722073656c660000000000000000000000006000830152602082019050919050565b6000613e32601883614ce1565b91507f4f7261636c65206973206e6f74207265676973746572656400000000000000006000830152602082019050919050565b6000613e72602583614ce1565b91507f416e20617070726f76696e67206f7261636c65206d757374206578656375746560008301527f20777261700000000000000000000000000000000000000000000000000000006020830152604082019050919050565b6000613ed8602d83614ce1565b91507f4f6e6c792061207746494f20637573746f6469616e206d61792063616c6c207460008301527f6869732066756e6374696f6e2e000000000000000000000000000000000000006020830152604082019050919050565b6000613f3e600f83614ce1565b91507f496e76616c6964206163636f756e7400000000000000000000000000000000006000830152602082019050919050565b6000613f7e603083614ce1565b91507f726563697069656e74206163636f756e7420646f6573206e6f74206d6174636860008301527f207072696f7220617070726f76616c73000000000000000000000000000000006020830152604082019050919050565b6000613fe4600283614ce1565b91507f75630000000000000000000000000000000000000000000000000000000000006000830152602082019050919050565b6000614024601383614ce1565b91507f496e76616c69642046494f2041646472657373000000000000000000000000006000830152602082019050919050565b6000614064600283614ce1565b91507f726f0000000000000000000000000000000000000000000000000000000000006000830152602082019050919050565b60006140a4602183614ce1565b91507f45524332303a206275726e2066726f6d20746865207a65726f2061646472657360008301527f73000000000000000000000000000000000000000000000000000000000000006020830152604082019050919050565b600061410a602583614ce1565b91507f45524332303a207472616e736665722066726f6d20746865207a65726f20616460008301527f64726573730000000000000000000000000000000000000000000000000000006020830152604082019050919050565b6000614170603b83614ce1565b91507f6d73672e73656e6465722068617320616c726561647920617070726f7665642060008301527f7468697320637573746f6469616e20646561637469766174696f6e00000000006020830152604082019050919050565b60006141d6602583614ce1565b91507f616d6f756e7420646f6573206e6f74206d61746368207072696f72206170707260008301527f6f76616c730000000000000000000000000000000000000000000000000000006020830152604082019050919050565b600061423c600283614ce1565b91507f72630000000000000000000000000000000000000000000000000000000000006000830152602082019050919050565b600061427c600283614ce1565b91507f756f0000000000000000000000000000000000000000000000000000000000006000830152602082019050919050565b60006142bc602483614ce1565b91507f45524332303a20617070726f76652066726f6d20746865207a65726f2061646460008301527f72657373000000000000000000000000000000000000000000000000000000006020830152604082019050919050565b6000614322601b83614ce1565b91507f437573746f6469616e206973206e6f74207265676973746572656400000000006000830152602082019050919050565b6000614362600d83614ce1565b91507f496e76616c6964206f62746964000000000000000000000000000000000000006000830152602082019050919050565b60006143a2602583614ce1565b91507f45524332303a2064656372656173656420616c6c6f77616e63652062656c6f7760008301527f207a65726f0000000000000000000000000000000000000000000000000000006020830152604082019050919050565b6000614408601f83614ce1565b91507f437573746f6469616e20697320616c72656164792072656769737465726564006000830152602082019050919050565b6000614448601f83614ce1565b91507f45524332303a206d696e7420746f20746865207a65726f2061646472657373006000830152602082019050919050565b6000614488602a83614ce1565b91507f45524332305061757361626c653a20746f6b656e207472616e7366657220776860008301527f696c6520706175736564000000000000000000000000000000000000000000006020830152604082019050919050565b60006144ee603883614ce1565b91507f6d73672e73656e6465722068617320616c726561647920617070726f7665642060008301527f74686973206f7261636c6520646561637469766174696f6e00000000000000006020830152604082019050919050565b61455081614ff1565b82525050565b61455f81614ffb565b82525050565b600060208201905061457a6000830184613848565b92915050565b60006040820190506145956000830185613848565b6145a260208301846138c4565b9392505050565b60006060820190506145be6000830186613848565b6145cb6020830185614547565b81810360408301526145dd81846138e2565b9050949350505050565b600060208201905081810360008301526146018184613857565b905092915050565b600060208201905061461e60008301846138b5565b92915050565b600060408201905061463960008301856138b5565b61464660208301846138d3565b9392505050565b600060608201905061466260008301866138d3565b61466f6020830185613848565b61467c6040830184614547565b949350505050565b6000602082019050818103600083015261469e81846138e2565b905092915050565b600060408201905081810360008301526146c081856138e2565b90506146cf6020830184614547565b9392505050565b600060208201905081810360008301526146ef8161391b565b9050919050565b6000602082019050818103600083015261470f8161395b565b9050919050565b6000602082019050818103600083015261472f816139c1565b9050919050565b6000602082019050818103600083015261474f81613a01565b9050919050565b6000602082019050818103600083015261476f81613a41565b9050919050565b6000602082019050818103600083015261478f81613aa7565b9050919050565b600060208201905081810360008301526147af81613b0d565b9050919050565b600060208201905081810360008301526147cf81613b73565b9050919050565b600060208201905081810360008301526147ef81613bb3565b9050919050565b6000602082019050818103600083015261480f81613bf3565b9050919050565b6000602082019050818103600083015261482f81613c59565b9050919050565b6000602082019050818103600083015261484f81613c99565b9050919050565b6000602082019050818103600083015261486f81613cd9565b9050919050565b6000602082019050818103600083015261488f81613d3f565b9050919050565b600060208201905081810360008301526148af81613da5565b9050919050565b600060208201905081810360008301526148cf81613de5565b9050919050565b600060208201905081810360008301526148ef81613e25565b9050919050565b6000602082019050818103600083015261490f81613e65565b9050919050565b6000602082019050818103600083015261492f81613ecb565b9050919050565b6000602082019050818103600083015261494f81613f31565b9050919050565b6000602082019050818103600083015261496f81613f71565b9050919050565b6000606082019050818103600083015261498f81613fd7565b905061499e6020830185613848565b6149ab60408301846138d3565b9392505050565b600060208201905081810360008301526149cb81614017565b9050919050565b600060608201905081810360008301526149eb81614057565b90506149fa6020830185613848565b614a0760408301846138d3565b9392505050565b60006020820190508181036000830152614a2781614097565b9050919050565b60006020820190508181036000830152614a47816140fd565b9050919050565b60006020820190508181036000830152614a6781614163565b9050919050565b60006020820190508181036000830152614a87816141c9565b9050919050565b60006060820190508181036000830152614aa78161422f565b9050614ab66020830185613848565b614ac360408301846138d3565b9392505050565b60006060820190508181036000830152614ae38161426f565b9050614af26020830185613848565b614aff60408301846138d3565b9392505050565b60006020820190508181036000830152614b1f816142af565b9050919050565b60006020820190508181036000830152614b3f81614315565b9050919050565b60006020820190508181036000830152614b5f81614355565b9050919050565b60006020820190508181036000830152614b7f81614395565b9050919050565b60006020820190508181036000830152614b9f816143fb565b9050919050565b60006020820190508181036000830152614bbf8161443b565b9050919050565b60006020820190508181036000830152614bdf8161447b565b9050919050565b60006020820190508181036000830152614bff816144e1565b9050919050565b6000602082019050614c1b6000830184614547565b92915050565b6000602082019050614c366000830184614556565b92915050565b6000604051905081810181811067ffffffffffffffff82111715614c6357614c626151c6565b5b8060405250919050565b600067ffffffffffffffff821115614c8857614c876151c6565b5b601f19601f8301169050602081019050919050565b6000819050602082019050919050565b600081519050919050565b600081519050919050565b6000602082019050919050565b600082825260208201905092915050565b600082825260208201905092915050565b6000614cfd82614fb9565b9150614d0883614fb9565b9250817f7fffffffffffffffffffffffffffffffffffffffffffffffffffffffffffffff03831360008312151615614d4357614d42615139565b5b817f8000000000000000000000000000000000000000000000000000000000000000038312600083121615614d7b57614d7a615139565b5b828201905092915050565b6000614d9182614ff1565b9150614d9c83614ff1565b9250827fffffffffffffffffffffffffffffffffffffffffffffffffffffffffffffffff03821115614dd157614dd0615139565b5b828201905092915050565b6000614de782614fb9565b9150614df283614fb9565b925082614e0257614e01615168565b5b600160000383147f800000000000000000000000000000000000000000000000000000000000000083141615614e3b57614e3a615139565b5b828205905092915050565b6000614e5182614fb9565b9150614e5c83614fb9565b9250827f7fffffffffffffffffffffffffffffffffffffffffffffffffffffffffffffff0482116000841360008413161615614e9b57614e9a615139565b5b817f80000000000000000000000000000000000000000000000000000000000000000583126000841260008413161615614ed857614ed7615139565b5b827f80000000000000000000000000000000000000000000000000000000000000000582126000841360008412161615614f1557614f14615139565b5b827f7fffffffffffffffffffffffffffffffffffffffffffffffffffffffffffffff0582126000841260008412161615614f5257614f51615139565b5b828202905092915050565b6000614f6882614ff1565b9150614f7383614ff1565b925082821015614f8657614f85615139565b5b828203905092915050565b6000614f9c82614fd1565b9050919050565b60008115159050919050565b6000819050919050565b6000819050919050565b600061ffff82169050919050565b600073ffffffffffffffffffffffffffffffffffffffff82169050919050565b6000819050919050565b600060ff82169050919050565b82818337600083830152505050565b60005b8381101561503557808201518184015260208101905061501a565b83811115615044576000848401525b50505050565b600061505582614fb9565b91507f800000000000000000000000000000000000000000000000000000000000000082141561508857615087615139565b5b600182039050919050565b600060028204905060018216806150ab57607f821691505b602082108114156150bf576150be615197565b5b50919050565b60006150d082614fb9565b91507f7fffffffffffffffffffffffffffffffffffffffffffffffffffffffffffffff82141561510357615102615139565b5b600182019050919050565b600061511982614fc3565b915061ffff82141561512e5761512d615139565b5b600182019050919050565b7f4e487b7100000000000000000000000000000000000000000000000000000000600052601160045260246000fd5b7f4e487b7100000000000000000000000000000000000000000000000000000000600052601260045260246000fd5b7f4e487b7100000000000000000000000000000000000000000000000000000000600052602260045260246000fd5b7f4e487b7100000000000000000000000000000000000000000000000000000000600052604160045260246000fd5b6000601f19601f8301169050919050565b61520f81614f91565b811461521a57600080fd5b50565b61522681614ff1565b811461523157600080fd5b5056fea2646970667358221220bc1c666766e0326f3bf43cfd7848d117bf934f963baa8c5068bb21c7fc9cd16164736f6c63430008000033",
  "immutableReferences": {},
  "source": "// SPDX-License-Identifier: MIT\n// FIO Protocol ERC20 and Oracle Contract\n// Adam Androulidakis 2/2021\n// Prototype: Do not use in production\n\npragma solidity 0.8.0;\n\nimport \"@openzeppelin/contracts/token/ERC20/ERC20.sol\";\nimport \"@openzeppelin/contracts/token/ERC20/extensions/ERC20Burnable.sol\";\nimport \"@openzeppelin/contracts/token/ERC20/extensions/ERC20Pausable.sol\";\n\ncontract WFIO is ERC20Burnable, ERC20Pausable {\n\n    address owner;\n    uint256 constant MINTABLE = 1e16;\n\n    struct custodian {\n      bool active;\n    }\n\n    struct oracle {\n      bool active;\n    }\n\n    struct pending {\n      mapping (address => bool) approved;\n      int approvals;\n      address account;\n      uint256 amount;\n    }\n\n    int custodian_count;\n    int oracle_count;\n\n    int uoracmapv;\n    int roracmapv;\n    int rcustmapv;\n    int ucustmapv;\n\n    event unwrapped(string fioaddress, uint256 amount);\n    event wrapped(address account, uint256 amount, string obtid);\n    event custodian_unregistered(address account, bytes32 eid);\n    event custodian_registered(address account, bytes32 eid);\n    event oracle_unregistered(address account, bytes32 eid);\n    event oracle_registered(address account, bytes32 eid);\n\n    mapping ( address => oracle) oracles;\n    address[] oraclelist;\n    mapping ( address => custodian) custodians;\n    mapping ( bytes32 => pending) approvals; // bytes32 hash can be any obtid\n\n    constructor(uint256 _initialSupply, address[] memory newcustodians ) ERC20(\"FIO Protocol\", \"wFIO\") {\n      require(newcustodians.length == 10, \"wFIO cannot deploy without 10 custodians\");\n      _mint(msg.sender, _initialSupply);\n      owner = msg.sender;\n      for (uint8 i = 0; i < 10; i++ ) {\n        require(newcustodians[i] != owner, \"Contract owner cannot be custodian\");\n        require(!custodians[newcustodians[i]].active, \"custodian already entered\");\n        require(newcustodians[i] != address(0), \"Invalid account\");\n        custodians[newcustodians[i]].active = true;\n      }\n      custodian_count = 10;\n      oracle_count = 0;\n    }\n\n    modifier oracleOnly {\n      require(oracles[msg.sender].active,\n         \"Only a wFIO oracle may call this function.\"\n      );\n      _;\n    }\n\n    modifier custodianOnly {\n      require(custodians[msg.sender].active,\n         \"Only a wFIO custodian may call this function.\"\n      );\n      _;\n    }\n\n    function pause() external custodianOnly whenNotPaused {\n        _pause();\n    }\n\n    function unpause() external custodianOnly whenPaused {\n        _unpause();\n    }\n\n    function wrap(address account, uint256 amount, string memory obtid) external oracleOnly whenNotPaused{\n      require(amount < MINTABLE);\n      require(bytes(obtid).length > 0, \"Invalid obtid\");\n      require(account != address(0), \"Invalid account\");\n      require(oracle_count >= 3, \"Oracles must be 3 or greater\");\n      bytes32 obthash = keccak256(bytes(abi.encode(obtid)));\n      if (approvals[obthash].approvals < oracle_count) {\n        require(!approvals[obthash].approved[msg.sender], \"oracle has already approved this obtid\");\n        approvals[obthash].approvals++;\n        approvals[obthash].approved[msg.sender] = true;\n      }\n      if (approvals[obthash].approvals == 1) {\n        approvals[obthash].account = account;\n        approvals[obthash].amount = amount;\n      }\n      if (approvals[obthash].approvals > 1) {\n        require(approvals[obthash].account == account, \"recipient account does not match prior approvals\");\n        require(approvals[obthash].amount == amount, \"amount does not match prior approvals\");\n      }\n      if (approvals[obthash].approvals == oracle_count) {\n       require(approvals[obthash].approved[msg.sender], \"An approving oracle must execute wrap\");\n         _mint(account, amount);\n         emit wrapped(account, amount, obtid);\n        delete approvals[obthash];\n      }\n\n    }\n\n    function unwrap(string memory fioaddress, uint256 amount) external whenNotPaused{\n      require(bytes(fioaddress).length > 3 && bytes(fioaddress).length <= 64, \"Invalid FIO Address\");\n      _burn(msg.sender, amount);\n      emit unwrapped(fioaddress, amount);\n    }\n\n    function _beforeTokenTransfer(address from, address to, uint256 amount) internal override(ERC20, ERC20Pausable) {\n        super._beforeTokenTransfer(from, to, amount);\n    }\n\n    function getCustodian(address account) external view returns (bool, int) {\n      require(account != address(0), \"Invalid address\");\n      return (custodians[account].active, custodian_count);\n    }\n\n    function getOracle(address account) external view returns (bool, int) {\n      require(account != address(0), \"Invalid address\");\n      return (oracles[account].active, oracle_count);\n    }\n\n    function getOracles() external view returns(address[] memory) {\n      return oraclelist;\n    }\n\n    function getApproval(string memory obtid) external view returns (int, address, uint256) {\n      require(bytes(obtid).length > 0, \"Invalid obtid\");\n      bytes32 obthash = keccak256(bytes(abi.encode(obtid)));\n      return (approvals[obthash].approvals, approvals[obthash].account, approvals[obthash].amount);\n    }\n\n    function regoracle(address account) external custodianOnly {\n      require(account != address(0), \"Invalid address\");\n      require(account != msg.sender, \"Cannot register self\");\n      require(!oracles[account].active, \"Oracle is already registered\");\n      bytes32 id = keccak256(bytes(abi.encode(\"ro\",account, roracmapv )));\n      require(!approvals[id].approved[msg.sender],  \"msg.sender has already approved this custodian\");\n      int reqcust = custodian_count * 2 / 3 + 1;\n      if (approvals[id].approvals < reqcust) {\n        approvals[id].approvals++;\n        approvals[id].approved[msg.sender] = true;\n      }\n      if (approvals[id].approvals == reqcust){\n        oracles[account].active=true;\n        oraclelist.push(account);\n        oracle_count++;\n        delete approvals[id];\n        roracmapv++;\n        emit oracle_registered(account, id);\n      }\n    }\n\n    function unregoracle(address account) external custodianOnly {\n      require(account != address(0), \"Invalid address\");\n      require(oracle_count > 0, \"No oracles remaining\");\n      bytes32 id = keccak256(bytes(abi.encode(\"uo\",account, uoracmapv)));\n      require(!approvals[id].approved[msg.sender],  \"msg.sender has already approved this oracle deactivation\");\n      require(oracles[account].active, \"Oracle is not registered\");\n      int reqcust = custodian_count * 2 / 3 + 1;\n      if (approvals[id].approvals < reqcust) {\n        approvals[id].approvals++;\n        approvals[id].approved[msg.sender] = true;\n      }\n      if ( approvals[id].approvals == reqcust) {\n          oracles[account].active = false;\n          delete oracles[account];\n          oracle_count--;\n          delete approvals[id];\n          uoracmapv++;\n\n          for(uint16 i = 0; i <= oraclelist.length - 1; i++) {\n            if(oraclelist[i] == account) {\n              oraclelist[i] = oraclelist[oraclelist.length - 1];\n              oraclelist.pop();\n              break;\n            }\n          }\n\n          emit oracle_unregistered(account, id);\n      }\n\n    } // unregoracle\n\n    function regcust(address account) external custodianOnly {\n      require(account != address(0), \"Invalid address\");\n      require(account != msg.sender, \"Cannot register self\");\n      bytes32 id = keccak256(bytes(abi.encode(\"rc\",account, rcustmapv)));\n      require(!custodians[account].active, \"Custodian is already registered\");\n      require(!approvals[id].approved[msg.sender],  \"msg.sender has already approved this custodian\");\n      int reqcust = custodian_count * 2 / 3 + 1;\n      if (approvals[id].approvals < reqcust) {\n        approvals[id].approvals++;\n        approvals[id].approved[msg.sender] = true;\n      }\n      if (approvals[id].approvals == reqcust) {\n        custodians[account].active = true;\n        custodian_count++;\n        delete approvals[id];\n        rcustmapv++;\n        emit custodian_registered(account, id);\n      }\n    }\n\n    function unregcust(address account) external custodianOnly {\n      require(account != address(0), \"Invalid address\");\n      require(custodians[account].active, \"Custodian is not registered\");\n      require(custodian_count > 7, \"Must contain 7 custodians\");\n      bytes32 id = keccak256(bytes(abi.encode(\"uc\",account, ucustmapv)));\n      require(!approvals[id].approved[msg.sender], \"msg.sender has already approved this custodian deactivation\");\n      int reqcust = custodian_count * 2 / 3 + 1;\n      if (approvals[id].approvals < reqcust) {\n        approvals[id].approvals++;\n        approvals[id].approved[msg.sender] = true;\n      }\n      if ( approvals[id].approvals == reqcust) {\n          custodians[account].active = false;\n          delete custodians[account];\n          custodian_count--;\n          delete approvals[id];\n          ucustmapv++;\n          emit custodian_unregistered(account, id);\n      }\n    } //unregcustodian\n\n    // ------------------------------------------------------------------------\n    // Don't accept ETH\n    // ------------------------------------------------------------------------\n    receive () external payable {\n        revert();\n    }\n\n    function decimals() public view virtual override returns (uint8) {\n      return 9;\n    }\n}\n",
  "sourcePath": "/Users/ericbutz/git/fio.erc20/contracts/wfio.sol",
  "compiler": {
    "name": "solc",
    "version": "0.8.0+commit.c7dfd78e.Emscripten.clang"
  },
  "schemaVersion": "3.4.8",
  "updatedAt": "2022-07-08T21:20:08.532Z",
  "networkType": "ethereum",
  "devdoc": {
    "kind": "dev",
    "methods": {
      "allowance(address,address)": {
        "details": "See {IERC20-allowance}."
      },
      "approve(address,uint256)": {
        "details": "See {IERC20-approve}. NOTE: If `amount` is the maximum `uint256`, the allowance is not updated on `transferFrom`. This is semantically equivalent to an infinite approval. Requirements: - `spender` cannot be the zero address."
      },
      "balanceOf(address)": {
        "details": "See {IERC20-balanceOf}."
      },
      "burn(uint256)": {
        "details": "Destroys `amount` tokens from the caller. See {ERC20-_burn}."
      },
      "burnFrom(address,uint256)": {
        "details": "Destroys `amount` tokens from `account`, deducting from the caller's allowance. See {ERC20-_burn} and {ERC20-allowance}. Requirements: - the caller must have allowance for ``accounts``'s tokens of at least `amount`."
      },
      "decimals()": {
        "details": "Returns the number of decimals used to get its user representation. For example, if `decimals` equals `2`, a balance of `505` tokens should be displayed to a user as `5.05` (`505 / 10 ** 2`). Tokens usually opt for a value of 18, imitating the relationship between Ether and Wei. This is the value {ERC20} uses, unless this function is overridden; NOTE: This information is only used for _display_ purposes: it in no way affects any of the arithmetic of the contract, including {IERC20-balanceOf} and {IERC20-transfer}."
      },
      "decreaseAllowance(address,uint256)": {
        "details": "Atomically decreases the allowance granted to `spender` by the caller. This is an alternative to {approve} that can be used as a mitigation for problems described in {IERC20-approve}. Emits an {Approval} event indicating the updated allowance. Requirements: - `spender` cannot be the zero address. - `spender` must have allowance for the caller of at least `subtractedValue`."
      },
      "increaseAllowance(address,uint256)": {
        "details": "Atomically increases the allowance granted to `spender` by the caller. This is an alternative to {approve} that can be used as a mitigation for problems described in {IERC20-approve}. Emits an {Approval} event indicating the updated allowance. Requirements: - `spender` cannot be the zero address."
      },
      "name()": {
        "details": "Returns the name of the token."
      },
      "paused()": {
        "details": "Returns true if the contract is paused, and false otherwise."
      },
      "symbol()": {
        "details": "Returns the symbol of the token, usually a shorter version of the name."
      },
      "totalSupply()": {
        "details": "See {IERC20-totalSupply}."
      },
      "transfer(address,uint256)": {
        "details": "See {IERC20-transfer}. Requirements: - `to` cannot be the zero address. - the caller must have a balance of at least `amount`."
      },
      "transferFrom(address,address,uint256)": {
        "details": "See {IERC20-transferFrom}. Emits an {Approval} event indicating the updated allowance. This is not required by the EIP. See the note at the beginning of {ERC20}. NOTE: Does not update the allowance if the current allowance is the maximum `uint256`. Requirements: - `from` and `to` cannot be the zero address. - `from` must have a balance of at least `amount`. - the caller must have allowance for ``from``'s tokens of at least `amount`."
      }
    },
    "version": 1
  },
  "userdoc": {
    "kind": "user",
    "methods": {},
    "version": 1
  }
}